S01800006275696C642F6D6963617A2F6D61696E2E73726563E5
S11300000C9476000C94E91A0C94F31A0C94FD1ACF
S11300100C94071B0C94111B0C941B1B0C94251B98
S11300200C94601B0C9495000C9495000C948E1900
S11300300C94E9180C9478190C94CC1A0C947C1830
S11300400C94C1180C946A1B0C9495000C949500A4
S11300500C9495000C9495000C9495000C949500C8
S11300600C9483190C9495000C9495000C949500B1
S11300700C9495000C9495000C9495000C949500A8
S11300800C9495000C9495000C9495001F0F6B0F25
S11300906F0FB90FBC0FC10FF30FEF1009111E1131
S11300A09B13C4131F14471474147215C515ED154E
S11300B006162F165316A41293129612AF12841317
S11300C084138413B9128413C212C912D012D71222
S11300D0EC12F312FA1201131F1326132D136F13CC
S11300E08F138413641300081C18141011241FBEEA
S11300F0CFEFD0E1DEBFCDBF11E0A0E0B1E0E8E397
S1130100FBE300E00BBF02C007900D92A032B107E1
S1130110D9F714E0A0E2B1E001C01D92AE39B107F5
S1130120E1F70E948A160C949A1D0C940000D89A48
S11301300895D99A0895DA9A08955F926F927F92FA
S11301408F929F92AF92BF92CF92DF92EF92FF92E3
S11301500F931F935FB6F894A090B901B090BA01C1
S1130160C090BB01D090BC019501A60160E070E095
S113017080E090E0FEE4AF2EE3E8BE2ECC24DD2444
S1130180EE24FF2400E010E00E94CF1B39014A0155
S113019000E20E94991C59016A01A4019301569539
S11301A04795379527952A0D3B1D4C1D5D1D57FF1F
S11301B005C05F772F5F3F4F4F4F5F4F2093B901CB
S11301C03093BA014093BB015093BC015FBEC90197
S11301D01F910F91FF90EF90DF90CF90BF90AF9061
S11301E09F908F907F906F905F90089586B7089549
S11301F0362F272FFC014383528361837083BA0116
S1130200832F922F0895FC01918180E0208130E0BA
S1130210282B392BC90108959FB7F89480932D0496
S11302209FBF0895282F9FB7F89481E030912D0443
S1130230321380E09FBF089580910501882339F42B
S113024081E090912501923019F080E0089580E0DA
S11302500895C0980895B89A08958FB7F8941092A5
S11302602C048FBF08959FB7F89481E020912C044B
S1130270211180E09FBF0895FC01218130E090812D
S113028080E0282B392BC90108959FB7F8948BB3CC
S113029021E082278BBB9FBF08959FB7F8948BB34F
S11302A022E082278BBB9FBF0895882311F06E9AAA
S11302B008956E980895C09A089587B78F7E87BF72
S11302C008954FB7F8942091490230914A028CB5B1
S11302D09DB556B752FF04C02F5F3F4F8CB59DB5F7
S11302E04FBF40E050E0A90133272227A0E0B0E04F
S11302F0282B392B4A2B5B2BB901CA010895DE9AAE
S11303000895DE98089589B78F7B89BF089587B7CC
S11303108F7D87BF089580918F048F3F89F0282FA8
S113032030E0F901EC56FE4F908190938F049F3F8B
S113033011F490939C042C563E4F9FEFF901908347
S1130340089583B783BF00B600FCFDCF0895FC0178
S1130350238130E040E050E0808190E0A0E0B0E014
S1130360B82FAA2799278827282B392B4A2B5B2BB0
S1130370618170E080E090E0CB0177276627262B2F
S1130380372B482B592B828190E0A0E0B0E0BA2FA4
S1130390A92F982F8827282B392B4A2B5B2BB9019F
S11303A0CA01089581E0849B80E00895882311F0B8
S11303B06F9A08956F98089580913401882311F4F9
S11303C00E944D018091340190E0019665E070E057
S11303D00E942A1D80933401089580913601882358
S11303E039F49FB7F8948BB324E082278BBB9FBF6B
S11303F01092360108959FB7F894E82FF0E0EC5678
S1130400FE4F20812F3F49F421E030E040919C04CD
S1130410481729F020E030E002C021E030E0211547
S1130420310589F420918F042F3F19F480938F04B0
S113043006C0E0919C04F0E0EC56FE4F808380936C
S11304409C0480E001C085E09FBF089581E10E9483
S1130450FB0108958EE00E94FB0108958FE00E9445
S1130460FB0108958DE00E94FB0108950F931F93F3
S11304701FB7F89402B70E94F6002091480130910A
S1130480490140914A0150914B0181FF0FC091B73E
S113049082B72F5F3F4F4F4F5F4F290F311D411DD3
S11304A0511D280F311D411D511D04C0200F311D48
S11304B0411D511D1FBFB901CA011F910F9108951C
S11304C0DF92EF92FF920F931F93D82E7A018B0144
S11304D00E9436024D2D50E09A01E3E0220F331FB3
S11304E0EA95E1F7240F351FF901E55BFD4F6083C1
S11304F0718382839383E482F58206831783F901EF
S1130500ED5AFD4F8081836080838BE00E94FB0164
S11305101F910F91FF90EF90DF900895AB01BC0104
S113052083E00E946002089550919804409132043F
S1130530242F30E0852F90E0451710F42C593F4FBD
S1130540281B390BC901089580E00E945501BA9A0D
S1130550BB98B99A6C9A80E00E94D601709A6B9805
S11305606A98689881E00E94550108951F93182F96
S113057081E00E9455011FB9779BFECF8FB11F9177
S11305800895EF92FF920F931F93182F062FE72ED3
S1130590FFB6F8940E943301882319F0FFBE80E06F
S11305A00AC0FFBE812F0E94B6028E2D0E94B602A1
S11305B0802F0E94B6021F910F91FF90EF90089533
S11305C0CF92DF92EF92FF920F931F93CF93DF931B
S11305D04FB7F8940091960410919704E090940218
S11305E0F0909502C0910902D0910A022091450130
S11305F030914601CE010A962817390708F4C9013B
S11306004FBF6C010894C108D10813C0011511052E
S113061029F0F801EC0FFD1F808101C080E00E94E9
S1130620B602E114F10421F0F701EC0FFD1F808301
S11306302196CC15DD0550F381E00E94D6018FB7D9
S1130640F8940115110531F0F801EC0FFD1F9081AC
S11306509FB901C01FB8D0930A02C09309028FBF8B
S113066080E0DF91CF911F910F91FF90EF90DF9089
S1130670CF9008952FB7F8945093460140934501C5
S113068090939704809396047093950260939402D8
S113069010920A02109209022FBF4115510521F050
S11306A08FB10E94E002089587E00E94FB0180E080
S11306B008950F931F93CF93DF93EC01062F1FB779
S11306C0F8940E943301882319F01FBF10E012C070
S11306D01FBF8FE790E0909300028093FF018FE7A4
S11306E00E94B602182F80E090E0BE01402F50E037
S11306F00E943A03812FDF91CF911F910F910895AA
S11307000F931F93CF93DF93C091B701D091B8019A
S11307101AA5112309F41FE10E9429018091AD015A
S1130720811739F0612F70E0606E706885E10E9476
S1130730C1021093AD0108811FB7F8940E943301E0
S1130740882311F01FBF12C01FBF8EE390E0909367
S113075000028093FF018EE30E94B602402F4150B5
S1130760CE0160E070E050E00E943A03DF91CF9147
S11307701F910F9108958FB7F89410922E048FBF94
S11307800895262F21502F3120F460930802FC0194
S113079062A70895FC01668377830895CF92DF9260
S11307A0EF92FF920F931F931FB7F89401B7C2B64D
S11307B00E94F6000C1511F081FF02C01FBF6BC030
S11307C0809107028823D1F10E94360220912804E7
S11307D03091290440912A0450912B04C0905A016D
S11307E0D0905B01E0905C01F0905D01621B730BA3
S11307F0840B950B6C157D058E059F0528F01092D2
S1130800070286EE61E01EC0D701C601820F931F66
S1130810A41FB51F209148013091490140914A011C
S113082050914B01821B930BA40BB50B873E910592
S1130830A105B10518F4823020F402C086EE01C08F
S113084082E060E0782F715000B601FCFDCF92B7D2
S1130850791709F4782F8091480190914901A0916A
S11308604A01B0914B019C01AD012F5F3F4F4F4FA7
S11308705F4F270F311D411D511D281739074A07A6
S11308805B0710F4782F709571BF1FBF662319F0B2
S11308908AE00E94FB011F910F91FF90EF90DF907F
S11308A0CF9008950F9320933604309337044093E8
S11308B03804509339040093AC01EFB7F894F1E095
S11308C0F0930702609328047093290480932A0408
S11308D090932B0420935A0130935B0140935C0165
S11308E050935D01EFBF0E94CE030F910895DF92F4
S11308F0EF92FF920F931F93D82E7A018B010E94DF
S113090036024D2D50E09A01F3E0220F331FFA9581
S1130910E1F7240F351FF901E55BFD4F6083718317
S113092082839383E482F58206831783F901ED5A67
S1130930FD4F80818E7F826080838BE00E94FB016B
S11309401F910F91FF90EF90DF90089590E0880F32
S1130950991F90933A01809339010E949B000E9451
S113096099000E94970084E044EF51E060E070E059
S11309700E9477040895809165028D7F80936502BB
S113098080916E028D7F80936E02ECE5F2E08081AF
S11309908D7F8083809177028D7F80937702809111
S11309A089028D7F80938902809192028D7F80934A
S11309B09202109238011092370110923A0110926B
S11309C0390110923F01109298041092320410924F
S11309D0960281E0809393020E949B000E949900FA
S11309E00E94970008950F931F93209117012223CB
S11309F009F470C01FB7F89420919302222309F0E0
S1130A0060C050913204252F30E0220F331F220F93
S1130A10331FF901E956FD4F4083F901E856FD4FB4
S1130A206083F901E756FD4F81839083852F8F5FA3
S1130A3080933204843610F0109232049091320480
S1130A4080919804981719F481E08093930210928E
S1130A502C0181E048EE53E060E070E00E94600207
S1130A6080919602882329F40E942A0281E08093CF
S1130A7096020E94940220911A01233031F52091AC
S1130A803D0130913E0182179307F8F081E0809395
S1130A903C0110922502109227021092260281E155
S1130AA0809321028FEF9FEF90930E0180930D01AD
S1130AB00E9426026FE070E080E090E00E948E02C7
S1130AC004C00E94ED0100E001C001E01FBF0E94CC
S1130AD02A0201C000E0802F1F910F910895809198
S1130AE03501882311F40E9445018091350190E07D
S1130AF0019664E170E00E942A1D809335010895F7
S1130B0080912401882309F052C0809102018F3F13
S1130B1009F04DC00E943301882309F448C081E0E4
S1130B208093340480919301882311F0109234044B
S1130B30809134048823E9F10E941C01882311F078
S1130B400E945B0180912501823049F58091050165
S1130B50882329F5209103012F3FE9F08FEF80933B
S1130B600501822F90E0FC01EE53FE4F308130935B
S1130B7003013F3F11F4309304018E539E4F3FEF26
S1130B80FC0130832093B00181E08093250188E04B
S1130B900E94FB0104C0209305011092250180915D
S1130BA02501882341F40E94550180E0089581E0E5
S1130BB0089585E0089580E008951F931FB7F89481
S1130BC090910201981719F01FBF81E033C08FEF95
S1130BD080930201E0912401EE2329F080E0F5E006
S1130BE02E2F30E005C00E942D010E9480051CC0FC
S1130BF06F2F0E940A1DA901092E02C05595479521
S1130C000A94E2F740FF13C09093020121E030E020
S1130C1002C0220F331F9A95E2F720952E232093CA
S1130C20240186E00E94FB011FBF80E003C0892FDE
S1130C308F5FDECF1F91089584E00E94DD05089543
S1130C4083E00E94DD0580E008950E9429018091DF
S1130C5043019091440161E00E945903089580E8A2
S1130C6080935E011092B3011092920410928E044C
S1130C701092AF0108950F931F93082F1FB7F89494
S1130C800E943301882319F01FBF80E004C01FBFF6
S1130C90802F0E94B6021F910F91089589E00E944F
S1130CA03B060895FC0115A68E9640E050E060E0F6
S1130CB070E80E94F8000895EF92FF920F931F933B
S1130CC00E9461017B018C012091C3013091C40118
S1130CD04091C5015091C6018091BE019091BF0120
S1130CE0A091C001B091C101820F931FA41FB51F31
S1130CF0E216F3060407150730F082179307A407DA
S1130D00B50758F005C082179307A407B50790F5F7
S1130D10E816F9060A071B0768F59C01AD012E19B0
S1130D203F09400B510B213060E8360760E046076D
S1130D3060E0560718F1D801C70180509048AF4FC2
S1130D40BF4F8093C3019093C401A093C501B09396
S1130D50C60120503048404050402093BE0130939B
S1130D60BF014093C0015093C10120E030E840E04E
S1130D7050E014C020E030E040E050E08093C30134
S1130D809093C401A093C501B093C6011092BE0113
S1130D901092BF011092C0011092C1018CB59DB593
S1130DA00396AC014E195F094217530718F4C901A1
S1130DB08E0D9F1D009711F481E090E001979BBD7B
S1130DC08ABD80E186BF87B7806187BF1F910F917D
S1130DD0FF90EF900895DF92EF92FF920F931F938D
S1130DE07B018C010E946101DFB6F8946093C3011A
S1130DF07093C4018093C5019093C601E092BE0133
S1130E00F092BF010093C0011093C1010E945C06DF
S1130E10DFBE1F910F91FF90EF90DF9008951F9315
S1130E201FB7F8940E949D0066E470E00E94161DAE
S1130E300B9690939A0480939904BC0180E090E00F
S1130E400E94EB061FBF1F9108958FB7F89460911D
S1130E5033048FBF85E0689FB0011124625D7E4F2B
S1130E60706488E10E94C10208951F931FB7F8942B
S1130E708091AE01882331F061E070E080919504A7
S1130E80882311F460E070E0762F6627770F770FE0
S1130E90770F8091B601882331F081E090E02091B2
S1130EA03104222311F480E090E0626E726224E047
S1130EB0880F991F2A95E1F7682B792B81E10E940D
S1130EC0C1021FBF1F910895DF93CF930F92CDB737
S1130ED0DEB789830E94870190E296BF89818823C7
S1130EE019F08EB5806402C08EB58F7B8EBD87B736
S1130EF0806287BF80E00F90CF91DF91089581E0F9
S1130F000E94640708959FB7F894809320019FBFBF
S1130F1082E00E94FB0108951F93182F21E030E026
S1130F203093270120932601109293010E9480059B
S1130F30812F0E9483071F9108950F931F931FB75A
S1130F40F89480912601909127018830910589F4C5
S1130F500E944E060E9420060E945B0181E090E000
S1130F60909327018093260183E00E9483071FBF8B
S1130F702FC00E94290180919D04882311F085E0EF
S1130F8001C084E00E943B0683FD05C080E00E940E
S1130F903B0683FD04C001E083E090E003C000E071
S1130FA085E090E090932701809326010E945B01E5
S1130FB01FBF002339F0109247010E9420060E94AF
S1130FC00F0706C060E471E080E090E00E94EB0649
S1130FD01F910F9108950F931F93823041F1833035
S1130FE030F4882359F0813009F0CAC00FC083302F
S1130FF009F4A6C0843009F0C3C0C0C010922D010A
S1131000662309F0B8C00E94DC01BAC010922D0119
S1131010662309F0B0C00E94DC01809130019091F8
S1131020310101969093310180933001A9C010924F
S11310302D01662369F50E94DC0180915C028D7F9D
S113104080935C021FB7F894F0913204E0910C0194
S11310508091980440E024E630E006C090E00196D8
S1131060B9010E942A1D4F5F8F1711F04E17B0F37C
S1131070809398041092930280911801882331F090
S11310800E949D0083708F5F80930C011FBF20C05E
S11310900E94ED0110911C010E949D00AC01812F62
S11310A065E00E940A1D212F30E0280F311D809138
S11310B01C0163E00E940A1D682FCA0170E00E94AF
S11310C0161D281B390BB90180E090E00E948E02A6
S11310D010911A01133009F053C000913C01013002
S11310E009F04EC00E949402009759F410923C01FA
S11310F01092980410923204109296020093930274
S11311003FC000911C010E949D00AC01802F65E04E
S11311100E940A1D202F30E0280F311D80911C01F0
S1131120612F0E940A1D682FCA0170E00E94161DDB
S1131130281B390BB90180E090E00E948E0220C088
S113114010922D016623B9F40E94DC0180915C02A7
S11311508D7F80935C022FB7F8948091980490E07F
S1131160019664E670E00E942A1D80939804109210
S113117093022FBF05C00E94ED0102C010922D0101
S11311801F910F910895CF92DF92EF92FF920F93E8
S11311901F93DF93CF930F92CDB7DEB76C01142F5B
S11311A0F52E0FB7F89469830E943301698188236F
S11311B019F00FBF00E019C00FBFC60ED11C8C2D53
S11311C080680E94B602082FC60196958795807C98
S11311D00E94B602412F5F2D6A0114E0F60181914D
S11311E06F010E94B6021150C9F7802F0F90CF9162
S11311F0DF911F910F91FF90EF90DF90CF900895B2
S1131200DF93CF9300D000D0CDB7DEB78FB7F8947B
S11312102091B4019091B501AE014F5F5F4F2983D6
S1131220FA0191832091FB019091FC012B839C8313
S11312308FBF88E691E060E00E94C3080F900F9092
S11312400F900F90CF91DF9108959FB7F894E82FF6
S1131250F0E0E45DFB4F8081882321F481E080830A
S113126080E001C081E09FBF08950F931F93182F62
S11312700FB7F89480E00E9425098823E1F51093C4
S113128002010E941C01882311F086E010C08091A5
S11312902501882311F40E94A4028091250188234A
S11312A049F481E0809325011092B00188E00E9406
S11312B0FB012DC08091C2018F3F49F481E090E091
S11312C020910401222329F080E090E002C081E013
S11312D090E00097E1F4809103018F3F19F410929C
S11312E0030106C0E0910401F0E0EE53FE4F1082CA
S11312F0109204010CC021E030E002C0220F331F21
S11313001A95E2F780912401822B809324010FBF68
S113131080E01F910F9108951F931FB7F894809157
S11313209B04882319F01FBF81E013C081E08093E0
S11313309B0480912101909122018430910521F434
S113134081E00E94350903C084E00E94FB011FBFB5
S113135080E01F9108958FB7F8941092B6018FBF63
S11313608FB7F894109231048FBF0E948C090895AE
S1131370CF92DF92EF92FF920F931F93DF93CF935D
S113138000D0CDB7DEB76C01CB012C30C1F54830AD
S113139009F056C08B0110922D01809165028D7F5A
S11313A0809365020E946F05C8010E943C018093EE
S11313B0D4019093D301F801828180931101C80173
S11313C006960E943C019093140180931301C80176
S11313D004960E943C019093380180933701109247
S11313E03101109230010E94AB09409113015091D8
S11313F0140160E070E082E00E94770423C02D3085
S1131400F9F44430E9F420912D012223D9F46983BD
S11314109A830E946F050E94AB0989819A810E9478
S11314203C018C01C60108960E940301AC01F6013F
S113143080A5992787FD9095B8010E94F30402C006
S11314400E94ED01C6010F900F90CF91DF911F9183
S11314500F91FF90EF90DF90CF9008956F927F925D
S11314608F929F92AF92BF92CF92DF92EF92FF92B0
S11314700F931F93CF93DF934B015C01CBE4D2E036
S113148060E070E0762EFB01A3E0EE0FFF1FAA954B
S1131490E1F7E60FF71F5BE4C52E52E0D52ECE0E22
S11314A0DF1ED60118966C90189761FEA9C0E880DB
S11314B0F9800A811B818C819D81AE81BF81A50148
S11314C094012E193F09400B510B281739074A077D
S11314D05B0708F495C060FE06C0ED5AFD4F80819D
S11314E08D7F808309C08E0D9F1DA01FB11FF60143
S11314F080839183A283B383F72DF33009F44EC024
S1131500F43030F4F13079F0F23009F080C02CC0BE
S1131510872D853009F45FC0853008F442C08730D8
S113152009F075C06AC070922C0180911A01833051
S1131530A9F580913C01882399F470923C011092A2
S11315402502109227021092260281E18093210243
S11315508FEF9FEF90930E0180930D010E9426025E
S113156081E080933C011AC0809137019091380149
S1131570009739F02091300130913101821793079F
S113158018F00E94320243C0809165028D7F8093DF
S1131590650210923101109230012CC00E942A027F
S11315A036C08091390190913A01009731F48091CD
S11315B077028D7F809377022AC00E944D010E949A
S11315C045018091390190913A01019790933A0134
S11315D0809339011CC080912D01882359F4809196
S11315E09302882339F481E080932D0182E00E94E4
S11315F035090DC00E94ED010AC00E942E0207C0E9
S11316006F5F7F4F29966830710509F03BCF8BE0FF
S11316100E94FB01DF91CF911F910F91FF90EF90FA
S1131620DF90CF90BF90AF909F908F907F906F90FE
S113163008950F931F93082F1FB7F89480E00E941A
S11316402509882319F01FBF85E01BC00E941C01D7
S1131650882379F480912501882379F482E08093AA
S11316602501109205010E94A4020E942B010E94F0
S113167029010093020180E003C00E942D0181E052
S11316801FBF1F910F91089582E090E09093AA01EB
S11316908093A90181E08093B30180910201843099
S11316A029F084E00E94190B882319F40E9425066E
S11316B0089584E00E94350908951F931FB7F89494
S11316C08091A9019091AA010097D1F01092B301E1
S11316D08091AF01882311F0B79904C00E9908C016
S11316E0882319F081508093AF010E94440B0AC0F3
S11316F081E090E09093AA018093A9011092AF0138
S11317000E941C061FBF1F9108950E942F060E946D
S11317105B010E94290188E00E943B0688E00E9448
S11317203B060E945B010E941C060E945D0B08950B
S1131730EF92FF920F931F93CF93DF938C018091CD
S1131740FF0186FF51C18F7B8F3309F090C1C09197
S11317504301D091440148814093AB018091A90198
S11317609091AA018530910509F444C08630910511
S113177009F492C08230910509F02FC185E090E010
S11317809093AA018093A90150915E01242F30E027
S1131790852F90E02817390754F5B79907C00E999B
S11317A005C0842F8095850F80935E014A32F8F43A
S11317B04423B1F0BE016F5F7F4F483028F080E0D2
S11317C090E047E050E009C086E090E09093AA01E1
S11317D08093A90180E090E050E00E943A0347C161
S11317E01092B3010E945B010E941C06F3C00E9488
S11317F0850B3DC186E090E09093AA018093A901F6
S11318008091B601882309F440C080913104882373
S1131810E1F58E010F5F1F4FC8010E94030185FF90
S113182034C086E0E82EF12CEC0EFD1EC7010E94A8
S113183003014FB7F8942091FB013091FC014FBF95
S11318408217930739F0C7010E9403012FEF8F3FDE
S11318509207D9F4C8010E94030187709070813007
S1131860910599F40E945B010E9429018AE00E947B
S11318703B060E945B010E9429016091AB01675005
S1131880CE0108960E945903F2C0BE01685F7F4FE3
S11318904091AB0147509ECF0E945B018091AF0104
S11318A0882311F40E941C068091AF01882311F053
S11318B0B7990AC00E9B08C080918E04882321F03A
S11318C09091AB019B3038F4809143019091440195
S11318D00E9452062FC08130A1F48091430190915F
S11318E04401E0919204F0E0EE0FFF1FEE0FFF1FA2
S11318F0E65CFB4F40815181628173818E960E9428
S1131900F8008091920490E0019687709070809323
S1131910920480918E04815080938E04882351F028
S113192080914301909144010E94520610929204C6
S113193010928E048091AB01FE01E80FF11D8081AD
S113194087FF48C00115110509F444C0CE01019672
S11319500E94030187703091430120914401823039
S113196099F5E091B701F091B801309799F1809120
S11319702601909127018730910561F5832FEC01B1
S11319807E01F22EE70193818B81981719F50E944D
S11319905D01A091B701B091B8019D01285D3F4F51
S11319A0888191E0F9019483C80FD11DCE0101977C
S11319B0FC01808198968C9388818F77F9018183CB
S11319C080E00E948C0706C0813021F489E00E94E7
S11319D0FB014DC00E945D0B4AC01092B3010E94EE
S11319E05B010E941C0643C08E3309F040C00E9474
S11319F05B0180912601909127018830910591F433
S1131A000E9429010E944E060E945B010E9420064A
S1131A1081E090E0909327018093260183E00E9467
S1131A20830725C080919D04882349F484E090E0D5
S1131A3090932701809326010E949D0718C00E945D
S1131A40200683E090E090932701809326010E9472
S1131A509D0066E371E00E94161D0B969093590158
S1131A6080935801BC0180E090E00E94EB06DF9176
S1131A70CF911F910F91FF90EF9008951F9383E0F2
S1131A800E94190B182F882319F083E00E9435094E
S1131A90812F1F910895EF92FF920F931F93CF937D
S1131AA0DF93EC01162F82E00E942509882309F0B8
S1131AB06AC080913504982F9F5F909335048B837F
S1131AC00FB7F89482E00E941201882329F40FBF13
S1131AD00E94BB0381E05AC098E2E92EF12CEC0E7F
S1131AE0FD1E84E00E940C01D0930602C0930502FF
S1131AF00FBF812F835FFE0181938F01CF010E946D
S1131B0003018072907089831A82C8010E940301C4
S1131B108164986889839A83F701148218A61182D4
S1131B20CE018E9640E050E060E070E80E94F8003C
S1131B3051E05093300420910502309106024FB7D2
S1131B40F89480912601909127018830910519F02D
S1131B508130910511F04FBF18C082E090E090935E
S1131B6027018093260150939D043093B80120935C
S1131B70B701109247014FBF0E943E0D882329F4FC
S1131B800E94800302C085E001C080E0DF91CF9114
S1131B901F910F91FF90EF900895952F2D3108F02C
S1131BA03EC0E42FF52F8387668377835FB7F8946D
S1131BB03091B4018091B5015FBF348385835FB7F1
S1131BC0F89430910601809107015FBF30878187C7
S1131BD080910901882359F0109209018FE38287CB
S1131BE0842F622F0E944B0D882389F4089520933B
S1131BF003021092040240932A0190932B018CE07B
S1131C000E94FB0180910901882359F004C09FEFD1
S1131C109093090108951092BD0180E0089582E037
S1131C20089589E00895EF92FF920F931F93DF9335
S1131C30CF9300D0CDB7DEB780911F0190E001961D
S1131C4065E070E00E942A1D10E025E030E0482F96
S1131C5050E0FA01EE0FFF1FE55FFD4F60817181D7
S1131C606115710599F0E82FE695E695E695F0E0A3
S1131C70ED56FB4F608170E0FA01E770F07002C02E
S1131C8075956795EA95E2F760FF09C0CA01019668
S1131C90B9010E942A1D1F5F1530C9F622C0809326
S1131CA01F01E0911F01E530F8F4F0E0EE0FFF1F93
S1131CB0E55FFD4F408151818A01C8010696498341
S1131CC05A830E940301BC01F80120812D508385B1
S1131CD0A8010E94CD0D882339F084E10E94FB0104
S1131CE003C010931F01DDCF0F900F90CF91DF91B0
S1131CF01F910F91FF90EF900895DF93CF9300D041
S1131D00CDB7DEB79C0180911F018530A8F4E82F80
S1131D10F0E0EE0FFF1FE55FFD4F40815181421758
S1131D20530751F4118210826A8389830E94130E2F
S1131D3089816A810E94EB070F900F90CF91DF9108
S1131D400895CF92DF92FF920F931F93DF93CF9367
S1131D5000D0CDB7DEB7082F162F853088F5C82EF2
S1131D60DD24CC0CDD1C8BE092E0C80ED91EF601FC
S1131D7080819181009731F560837183E62FF72F7D
S1131D80842F835F808380911F018530E8F0F38482
S1131D90CF01069649837A830E940301BC01009314
S1131DA01F018F2D412F5A8129810E94CD0D882337
S1131DB061F095E090931F01F6011182108205C035
S1131DC081E003C085E001C080E00F900F90CF91C7
S1131DD0DF911F910F91FF90DF90CF900895CF93E3
S1131DE0DF93BC01C5E1D2E0CE010E94CA038EE0BC
S1131DF08093200284E0BE0141E10E94A10EDF91A4
S1131E00CF9108958F929F92AF92BF92CF92DF921B
S1131E10EF92FF920F931F93DF93CF930F92CDB75F
S1131E20DEB7E82FF0E0E531F10508F056C7EA5BCC
S1131E30FF4FEE0FFF1F0590F491E02D09941FB79B
S1131E40F8940E947F0731E0E32EF12CF0922701F1
S1131E50E092260110922801109293011092AD0194
S1131E601FBF1FB7F8940E942F06F092AA01E092B8
S1131E70A9011092B3010E94830180E488BF8AB74C
S1131E8080628ABF8AB78F7E8ABF89B7806489BF20
S1131E901FBF1FB7F89480912101909122018430D3
S1131EA0910519F483E00E943B061FBF1FB7F89405
S1131EB00E945B0180E00E94DD051FBF82E00E945A
S1131EC00C0110922D0187E044EF51E060E070E0D6
S1131ED00E94600202C780E00E940C01FEC68FB718
S1131EE0F894109120018FBF83E00E94120188238F
S1131EF051F10FB7F89410922701109226010E9415
S1131F005D010E94870183E00E94DD050E945B0160
S1131F100FBF0FB7F8941092AA011092A9010E9462
S1131F202F060E945B010E9483010FBF10922201C1
S1131F30109221010E948101DD980E947F0181E0BD
S1131F400E94FB0103C082E00E940C01E0900502A4
S1131F50F09006020E94BB03D7011A968C911A973F
S1131F608F3309F0BAC68FEF80930901C701612F3F
S1131F7087C40E948C09B1C68FB7F89410929B0451
S1131F8006C08FB7F89490912301992311F08FBF65
S1131F90A4C68FBF01E0869B00E08091FD01909173
S1131FA0FE019817E1F00817D1F484E090E09093D3
S1131FB02201809321018FB7F89491E0909323013B
S1131FC08FBF8DE160E070E00E94C1020E940009B1
S1131FD00E945B010E94290180E00E94FB010093A2
S1131FE0FE0185E039C69FB7F894809102019FBF36
S1131FF0823009F45DC0833030F4882359F0813095
S113200009F06BC63CC0833009F4BDC0843009F0CC
S113201064C6E2C00E9429010FB7F894809121019F
S1132020909122018230910541F583E090E09093F4
S11320302201809321018DE168E170E00E94C102D8
S113204081E08093FD0110922301869B80E08093C0
S1132050FE0185E00E94FB0181E00E943B068CE1C9
S11320606FE772E00E94C1020E9425070E943507B3
S113207087E166E57AE20E94C1020FBF2EC60E9484
S1132080290186E00E943B060E9425070E9435072D
S11320900E9400090E945B010E94290183E00E94C2
S11320A03B060E945B0181E00E94DD0584E0D4C50B
S11320B00E9429011FB7F8940E943301882321F05C
S11320C01FBF00E010E011C01FBF83E50E94B602ED
S11320D080E00E94B602182F80E00E94B602312FE1
S11320E020E0082F10E0022B132B0E945B0182E0FA
S11320F00E94DD0510922D010E94450130913204A9
S1132100832F90E0880F991F880F991FFC01E956CF
S1132110FD4F20910001208320913F01FC01E856EE
S1132120FD4F2083FC01E756FD4F01581F4F0183EB
S11321301082832F8F5F80933204843610F01092C4
S113214032049091320480919804981719F481E034
S1132150809393022F5F20933F0185E044E650E093
S113216060E070E00E94600280913F018A3008F4D0
S1132170B4C5809180028D7F809380026FE070E00F
S113218080E090E04AC49FB7F894809126019FBFF5
S1132190843039F0883041F08230D9F40E948003D1
S11321A09CC50E949D0799C50E9429010E944E0664
S11321B00E945B010E9420062FB7F89481E090E012
S11321C090932701809326012FBF83E00E94830709
S11321D084C50E94200681C50E9425067EC51FB7BE
S11321E0F894809194029091950210929502109225
S11321F09402109297041092960410924601109241
S1132200450110920A02109209020E94980B1FBF06
S113221064C58FB7F8949091B0019093050192E052
S1132220909325018FBF80910501882309F055C53E
S11322300E942B010E94290186E00EC5E091430112
S1132240F09144019F01285D3F4FC080AF014C0DC8
S1132250511DDA018C91881F8827881FD901139694
S11322608C93DA018C918F77D90111968C93DA01D2
S113227011978C9180A700914301109144019FB75D
S1132280F8948091AE019FBF882309F10A5F1F4F24
S1132290C8010E9403014FB7F8942091FB013091CB
S11322A0FC014FBF8217930761F0C8010E9403012C
S11322B021E030E0BFEF8F3F9B0729F020E030E0C2
S11322C002C021E030E02115310509F42CC2EC2DC7
S11322D0ED3008F428C20091430110914401B8E0A4
S11322E0AB2EB12CA00EB11EC5010E940301D80172
S11322F013967C912FEF20939404AFB7F8946091D8
S11323009404ECE4F1E020E030E04081518148178E
S1132310590741F44281471721F460939404AFBFF5
S1132320FEC1622F2F5F3F4F33962430310569F78A
S113233060939404AFBF209194045FB7F8942F3F47
S113234021F030912901321721F42091290141E033
S113235001C040E030E0F901EE0FFF1FE20FF31F70
S1132360E45BFE4F918380837283442331F0809138
S113237029018F5F8370809329015FBF68E2E62E95
S1132380F12CE00EF11EF7018381882309F4C7C103
S1132390D8011A968C911A978F3309F0C0C156E070
S11323A0852E912C800E911EC4010E9403014FB70B
S11323B0F89420910601309107014FBF82179307CB
S11323C061F0C4010E94030121E030E0BFEF8F3FC0
S11323D09B0729F020E030E002C021E030E0211525
S11323E0310509F49CC14CE0842E912C800E911E81
S11323F04C2D4D50F80183858C3009F447C08D3045
S113240020F48B3009F08BC107C08D3009F442C031
S11324108E3009F084C156C0453009F07EC18091E8
S11324202D01882309F07BC10E946F053DE0C32E76
S1132430D12CC00ED11EC6010E943C0190932F01E5
S113244080932E018091000180936B01D4018C91C3
S113245080936C01C6010E943C01EDE6F1E08183AA
S113246090936D01D7012C91822F992787FD909528
S1132470258390937101F4018381809311018481F8
S11324808093330182E10E94FB0149C1C801B40178
S11324902CE014C080911901843009F440C18130CA
S11324A009F03DC180911A01833029F480913C01E7
S11324B0813009F434C1C801B4012DE00E94B80987
S11324C08C012DC1413109F025C1D4018C91809337
S11324D025022EE0C22ED12CC00ED11EC6010E94B0
S11324E03C01809327029093260286E08093210288
S11324F0809115019091160190930E0180930D0126
S113250010921D01F401808190E0019788319105BA
S113251008F0FAC0855A9F4FFC01EE0FFF1F05908B
S1132520F491E02D09940E942E0221C00E94ED0135
S1132530F89428E088E190E00FB6F894A89581BD5E
S11325400FBE21BD0000FECF0E94BB0486E0809335
S1132550210282E00E94A6040E942602E0C0C40177
S113256007960E943C01809312010E94260282E099
S1132570CEC0C40107960E943C019093160180933B
S11325801501F3CF8091170180932902109228023C
S1132590ECCFC40107960E943C0180931701E5CF5C
S11325A0C40107960E943C0180931801DECF8091FC
S11325B01A01813029F4C40107960E943C0110C01D
S11325C0833009F0ACC0C40107960E943C0190938B
S11325D03E0180933D01C9CF82E080931A0181E0DE
S11325E080930C01C2CFC40107960E943C018093E2
S11325F01901BBCFC40107960E943C0180931A01C4
S1132600B4CF80911901843009F489C0823019F45F
S11326100E94BB047BC0813009F081C090911A01F3
S1132620933009F07CC090913C01992309F077C064
S113263080933C010E94A6040E942A0270C0C40137
S113264007960E943C0180931B018FCFC40107961B
S11326500E943C0180931C0188CFC40107960E940C
S11326603C0180931E01C40109960E943C01813003
S1132670910509F054C083E00E94A604C4010B969E
S11326800E943C01009741F48091890281FF0AC0B5
S11326908D7F8093890206C0AC0160E070E086E023
S11326A00E947704C4010D960E943C0180FF03C080
S11326B08FEF9FEF04C080910D0190910E019093D4
S11326C0100180930F012BC0C40107960E943C01A6
S11326D021E0009709F420E020933B0146CF80914C
S11326E03B018823E1F0C6010E943C016C01C50155
S11326F00E940301AC01D7018C91992787FD909525
S1132700B6010E94F3040BC00E94ED0181E00E9417
S1132710A60405C081E00E94A6040E94ED01109366
S11327204401009343018FB7F8941092B3018FBF13
S11327300E945D0BD2C28091AC01882311F5EFB7E2
S1132740F89460915A0170915B0180915C019091C1
S11327505D01209128043091290440912A0450916C
S11327602B04620F731F841F951FEFBF2091360443
S113277030913704409138045091390400E00E94AC
S113278052040E94360250C00E9436029B01AC01E2
S11327908FB7F894109207028FBFEBE4F2E060E089
S11327A070E099249FEFE92E9FEFF92E9FEF092FF8
S11327B09FE7192FDB0183E0AA0FBB1F8A95E1F77E
S11327C0A60FB71FA55BBD4F18968C91189781FF74
S11327D01BC080819181A281B38159016A01A81A29
S11327E0B90ACA0ADB0A84819581A681B7818A194C
S11327F09B09AC09BD098E159F05A007B10724F4F8
S11328007C018D01992493946F5F7F4F39966830D2
S1132810710581F6992009F460C21E141F04100684
S113282011062CF0CA01B9010E942E0A56C2CA012F
S1132830B901A801970101E00E9452044EC280919F
S1132840BD0190910901891709F447C280930901D8
S11328508823C9F480912A0190912B01609103028D
S11328602FE3FC0122870E944B0D682F882309F473
S113287034C28FEF8093090180912A0190912B013A
S11328800E947D0E2AC28FEF8093090126C2809197
S11328902D01882321F587EC91E0609111010E94BC
S11328A0C103909130018091310103ED11E0D80111
S11328B011969C938093D301C8010C976FEF7FEF1F
S11328C00E94CA038DE08093D20181E0B8016C506C
S11328D0704044E00E94A10E882309F4B6C10E940E
S11328E0ED010E943202F9C180912D01882309F083
S11328F076C080911901843009F4EFC180911701E9
S1132900882309F4EAC110919302112309F0DDC16F
S113291080912C01882309F0D8C10E94940220914F
S11329201A01223021F4009709F0CFC1D6C1213019
S113293021F420910C0130E00CC0233009F0CDC10A
S113294020913C01222309F0C0C120913D01309126
S11329503E018217930708F0B8C1BFC1112319F4CF
S113296010929602BAC110923F0130911A0120913F
S11329702E0190912F01323009F052C020936C0146
S113298090936B010DE611E080919702F801818329
S113299010926D0180919802838310926F0189E9EE
S11329A092E00E943C01D80115968C93909371019A
S11329B0C8010E97609112010E94C1036091150134
S11329C070911601C8010E970E94CA0381E1809399
S11329D06A0183E0B8016E50704048E071C00E9403
S11329E0ED0100911C010E949D00AC01802F65E067
S11329F00E940A1D202F30E0280F311D80911C01F8
S1132A0063E00E940A1D682FCA0170E00E94161D2F
S1132A10281B390BB90180E090E00E948E025DC151
S1132A2020936C0190936B01CC2444E6842E912C6A
S1132A302AC00C2D10E0E82EFF24000F111FF8010E
S1132A40E259FE4FC701880F991F880F991FDC01B7
S1132A50A956BD4F2C9121831082F801EA58FE4FEC
S1132A6011962C912183108287569D4F0E943C0120
S1132A70F801E258FE4F81839083C394C701019605
S1132A80B4010E942A1D8A1521F090910C01C916E7
S1132A9080F2C0926D018FE591E0609112010E9475
S1132AA0C10360911501709116018FE591E00E94B8
S1132AB0CA0380E180936A0182E06FE571E04BE133
S1132AC00E94A10E882309F08ACF81E080932D0112
S1132AD080912E0190912F01019690932F01809364
S1132AE02E01FBC080912D01882309F049C09091EB
S1132AF02E0180912F01E3E2F2E09183809323027F
S1132B0082E08093250286E080932102809119015E
S1132B1086831092280281E0808710922A022091F5
S1132B20000190910101228790932C0290911D0144
S1132B303B969923C9F0818310922E028091400123
S1132B40882329F444EF51E060E070E004C048E8D1
S1132B5053E160E070E087E00E94600280914001F0
S1132B608F5F8093400103C0118210922E028091E6
S1132B701501909116010E94EF0E882309F465C097
S1132B800E94ED010E942E02A8C080912D0188238D
S1132B9001F5E3E2F2E011E0118310922302909137
S1132BA041018091420196838093280285E18093BC
S1132BB0210280911E01808710922A0280910F01C8
S1132BC0909110010E94EF0E882319F410932D01A7
S1132BD084C00E94ED0180E13FC080912D018823D3
S1132BE081F490912E0180912F019093240280937F
S1132BF0230280910D0190910E010E94EF0E882313
S1132C0021F10E94ED010E94260267C080912D01EE
S1132C108823F9F48091000180936B018FE591E0A2
S1132C20609111010E94C1038FE591E06FEF7FEF86
S1132C300E94CA038AE080936A0180E06FE571E034
S1132C4048E00E94A10E882321F481E080932D01A5
S1132C5044C00E94ED0182E10E94FB013EC08091CC
S1132C6093048823D1F1BBE0EB2EB2E0FB2E10E0FD
S1132C7001E090919304802F892361F0F701118280
S1132C801082802F8095892380939304812F63E0A1
S1132C900E94EB071F5F82E090E0E80EF91E1830F7
S1132CA0E1F0000FE6CF80911F01E82FF0E0EE0F76
S1132CB0FF1FE55FFD4F1182108289830E94130E6E
S1132CC0898161E00E94EB0708C0A09032048091E2
S1132CD09804A81609F047CE41CE0F90CF91DF910A
S1132CE01F910F91FF90EF90DF90CF90BF90AF9026
S1132CF09F908F9008950E948B018F3F21F00E9436
S1132D00020F81E0089580E008958FB7F894089544
S1132D108FBF08950F931F931FB7F89484E991E030
S1132D206FEF70E045E150E00E94931D8FEF8093B8
S1132D308F0480939C0481E08EBD88E080BF83E093
S1132D4083BF8CB59DB54AE701C0C9012CB53DB51B
S1132D502817390708F441504423B9F782B792B7CA
S1132D609817E9F32CB53DB582B792B79817E9F3F4
S1132D708CB59DB54096821B930B55E0969587952F
S1132D805A95E1F7909391048093900413BE83B70E
S1132D908EBD8EB580BF12BE1DBC1CBC8FEF86BF1E
S1132DA086B780937C0080B790E08770907000971E
S1132DB0D1F7D29AD19AD09A0E949B000E9499008E
S1132DC00E94970015BA8FEF84BBD498DC981DBC81
S1132DD01CBC87B7846087BF8EB5887F84608EBD36
S1132DE080E285BF0E947B168823E1F70FEF0093F2
S1132DF0B1018FEF9FEF90934D0180934C0110929E
S1132E004E019093500180934F0110925101909381
S1132E105301809352011092540190935601809370
S1132E205501109257010E949D00809335048091B2
S1132E300001909101010196A0E0B0E08093B901F6
S1132E409093BA01A093BB01B093BC0180B7886092
S1132E5080BF8BE083BF86EE81BF87B7826087BF68
S1132E600E94CE038AE594E0909344018093430149
S1132E708E980E942B018C980093C20110922C040E
S1132E8010922D0410922E0410922F040E942B01F4
S1132E90D69AD59A2FB7F89480910601909107019C
S1132EA02FBF9093FC018093FB01809108018093D4
S1132EB0B4011092B5018FE1809327048AE18093D5
S1132EC033041092AE01109295041092B601109240
S1132ED031040E947B168823E1F71FBF789481E0B8
S1132EE080932D0180E090E09C01220F331F220F7C
S1132EF0331FF901E956FD4F1082F901E856FD4FE1
S1132F001082F901E756FD4F118210820196843632
S1132F10910551F71092980410923204109296027F
S1132F2081E0809393020E9425098823C9F42FB776
S1132F30F8948091210190912201009711F02FBF04
S1132F4017C081E090E090932201809321012FBF6C
S1132F50DD9A64E170E080E090E00E94EB0608C036
S1132F6082E00E941201882319F481E00E94120178
S1132F700E94BB0484E080930C0110922C011092F7
S1132F802D0110922F0110922E018FE180931101D7
S1132F908093120110923201109233011092340185
S1132FA0109235011092360184E690E0909314015A
S1132FB080931301109238011092370181E090E060
S1132FC0909316018093150111E01093170110934B
S1132FD0180110923A01109239010E949B000E943C
S1132FE099000E9497001092980410923204109253
S1132FF09602109393028091000190910101883C04
S1133000910520F082E08093190102C01093190108
S113301021E020931A0110923C0180E590E0909306
S11330203E0180933D01809115019091160190938A
S11330300E0180930D0120931B0110923F018FE03C
S113304080931C0120931E0110923B0120931D01CB
S11330501092400182E00E94A6041FB7F89443C076
S113306087B7887BA1F480917D008B7F81F46E9972
S11330700EC09AB180919A00892B807C41F4809192
S1133080740082FD04C0379B04C021E003C020E02B
S113309001C025E087B790E083709070009779F0C5
S11330A080B790E0877090700097D1F781B792B79E
S11330B0891B8C3030F082B7853F28F002C0E5E0F0
S11330C003C0E2E001C0E3E085B72E1708F4E22F65
S11330D0F0E0EA51FF4FE491837C80628E2B85BF40
S11330E078948895F8940E948B018F3F09F4B8CFA7
S11330F01FBF0E94020FB1CF1F920F920FB60F9203
S11331000BB60F9211242F933F934F935F936F93BA
S11331107F938F939F93AF93BF93EF93FF930E94FB
S1133120A10121B730E02F5F3F4F40E050E0809194
S1133130480190914901A0914A01B0914B01820F3D
S1133140931FA41FB51F8093480190934901A09336
S11331504A01B0934B0178940E94CE03FF91EF9102
S1133160BF91AF919F918F917F916F915F914F919B
S11331703F912F910F900BBE0F900FBE0F901F9099
S113318018951F920F920FB60F920BB60F9211243F
S11331902F933F934F935F936F937F938F939F935B
S11331A0AF93BF93EF93FF930E94A101FF91EF911F
S11331B0BF91AF919F918F917F916F915F914F914B
S11331C03F912F910F900BBE0F900FBE0F901F9049
S11331D0189578941F920F920FB60F920BB60F9218
S11331E011241F932F933F934F935F936F937F9378
S11331F08F939F93AF93BF93EF93FF930E945D01CF
S113320078941FB7F8948091BE019091BF01A0916A
S1133210C001B091C1010097A105B10509F051C0E9
S113322080912601909127018530910561F18630C6
S1133230910538F48330910559F08430910561F596
S113324019C087309105E9F08830910529F512C03D
S1133250869B0DC084E090E0909327018093260123
S113326067E070E080E090E00E94EB0615C00E94E9
S11332700F0712C00E943E0D882371F40E949D071F
S11332800BC080E007C00E944E060E947F070E9488
S1133290200687E00E948C078091210190912201F1
S11332A08130910581F482E090E090932201809333
S11332B021010E9481010E947F0180E00E94350962
S11332C002C00E945C061FBFFF91EF91BF91AF91B6
S11332D09F918F917F916F915F914F913F912F912A
S11332E01F910F900BBE0F900FBE0F901F9018955B
S11332F078941F920F920FB60F9211240F900FBE65
S11333000F901F90189578941F920F920FB60F92FA
S113331011240F900FBE0F901F90189578941F9250
S11333200F920FB60F920BB60F9211246F927F92E9
S11333308F929F92AF92BF92CF92DF92EF92FF92C1
S11333400F931F932F933F934F935F936F937F93A9
S11333508F939F93AF93BF93EF93FF93DF93CF9399
S11333600F92CDB7DEB7CCB4DDB480E286BFBFB672
S1133370F8940E9461017601E61AF70A0027F7FC27
S11333800095102FE60EF71E081F191F80912601C5
S1133390909127018530910529F08630910509F037
S11333A07FC05CC086E090E0909327018093260163
S11333B081E08093B2011092280180E00E946407AA
S11333C08091B7019091B8018E96B801A7010E942F
S11333D0F800E091B701F091B80185A5882349F17F
S11333E0208125503F01620E711CC30129830E9474
S11333F0A701AB01BC014E195F09600B710BC3013E
S11334000E94F8000E94290180E090E02981622F47
S1133410A3010E94C3080E945B01C3010E94A7018B
S1133420AB01BC014E0D5F1D601F711FC3010E94E3
S1133430F8008091B7019091B80101960E940301B0
S113344085FF03C081E0809393010E9420060E94BF
S11334505D010E94D201882309F07BC01092B20161
S11334600E947F078091B7019091B80101960E9454
S1133470030185FF0DC087E090E0909327018093BE
S1133480260160E071E080E090E00E94EB0603C05A
S113349080E00E948C070E94D201882309F459C05D
S11334A080912801882379F58091B201882359F508
S11334B081E08093B20180E00E9464070E94D201FF
S11334C0A82E80918E04883090F4E0919204E80F45
S11334D0E770F0E0EE0FFF1FEE0FFF1FE65CFB4FFF
S11334E0E082F182028313838F5F80938E0481E0F4
S11334F080932801D0920202C09201020E94D2015C
S1133500882311F026C0AA248091B201813009F5E4
S11335101092B2010E947F0710922801AA20C9F4D8
S11335208091010290910202C81AD90A2AE0C216B7
S1133530D10478F480918E04882319F0815080930B
S11335408E048091B7019091B801009711F00E9408
S11335505206BFBE0F90CF91DF91FF91EF91BF91C3
S1133560AF919F918F917F916F915F914F913F9117
S11335702F911F910F91FF90EF90DF90CF90BF900C
S1133580AF909F908F907F906F900F900BBE0F9095
S11335900FBE0F901F90189578941F920F920FB63C
S11335A00F9211242F938F939F932FB7F8948091A8
S11335B0490290914A02019690934A0280934902EB
S11335C02FBF9F918F912F910F900FBE0F901F903F
S11335D018951F920F920FB60F9211240F900FBEE1
S11335E00F901F9018951F920F920FB60F921124EF
S11335F00F900FBE0F901F9018951F920F920FB649
S11336000F9211240F900FBE0F901F9018951F92C8
S11336100F920FB60F9211240F900FBE0F901F90B0
S113362018951F920F920FB60F9211240F900FBE90
S11336300F901F9018951F920F920FB60F9211249E
S11336400F900FBE0F901F9018951F920F920FB6F8
S11336500F920BB60F9211242F933F934F935F93C6
S11336606F937F938F939F93AF93BF93EF93FF9346
S11336708091A9019091AA018130910549F482E0D9
S113368090E09093AA018093A9010E94440B05C085
S11336908091AF018F5F8093AF01FF91EF91BF9154
S11336A0AF919F918F917F916F915F914F913F91D6
S11336B02F910F900BBE0F900FBE0F901F90189577
S11336C01F920F920FB60F9211240F900FBE0F90FE
S11336D01F9018951F920F920FB60F920BB60F9270
S11336E011242F933F934F935F936F937F938F9303
S11336F09F93AF93BF93EF93FF932FB18091940265
S113370090919502009739F0E0910902F0910A0234
S1133710E80FF91F20838091090290910A02019613
S113372090930A028093090280E00E94D6012091BE
S1133730090230910A0280914501909146012817AF
S1133740390718F40E94E00217C080919402909106
S1133750950210929502109294021092970410927E
S11337609604109246011092450110920A0210929A
S113377009022FB10E94980BFF91EF91BF91AF9175
S11337809F918F917F916F915F914F913F912F9175
S11337900F900BBE0F900FBE0F901F901895ACE2C8
S11337A0B0E0E5EDFBE10C945C1D29833A834B8387
S11337B05C836D837E838F839887A986BA86CB8644
S11337C0DC86ED86FE860F87188B69807A808B8075
S11337D09C8069A27AA28BA29CA2840173018FEFC0
S11337E09FEFA0E0B0E0E822F9220A231B23140192
S11337F04424552469847A848B849C846DA27EA29B
S11338008FA298A664015301A822B922CA22DB22FE
S1133810340188249924C601B501A80197010E94A6
S11338203D1D69A77AA78BA79CA7C401B3010E9479
S11338303D1D7B018C01C601B501A20191010E94CD
S11338403D1D5B016C01C401B3010E943D1D9B0140
S1133850AC01EA0CFB1C0C1D1D1D69A47AA48BA4ED
S11338609CA4C401AA27BB27E80EF91E0A1F1B1F2C
S1133870EA14FB040C051D0520F4205030404F4F82
S11338805F4FC801AA27BB27820F931FA41FB51F30
S11338908D8F9E8FAF8FB8A38701FF24EE2429A5B7
S11338A03AA54BA55CA540705070E20EF31E041FB0
S11338B0151FE98EFA8E0B8F1C8FDE2CAA8CCB8CF5
S11338C06C8C8D8B8E8D8E8B8F8D8F8B88A1888F3A
S11338D02D853E854F85588969A17AA18BA19CA12C
S11338E00E943D1D7B018C012D813E814F815885B5
S11338F06DA17EA18FA198A50E943D1DE60EF71E25
S1133900081F191F6D897E898F89988D6E0D7F1D03
S1133910801F911F6D8B7E8B8F8B988F7E892D2DB1
S11339203A2D4C2D562D8F89988DAC96E2E10C944E
S1133930781D0F93DF93CF93CDB7DEB760970FB6A3
S1133940F894DEBF0FBECDBF002309F459C029830C
S11339503A834B835C836D837E838F839887E0E215
S1133960E01B2D813E814F8158851E16BCF01D86BB
S11339701E861F86188A8E2F992787FD909590950D
S113398081959F4F04C056954795379527958A95FD
S1133990D2F729873A874B875C872AC0CA01B901C5
S11339A0002E04C096958795779567950A94D2F76B
S11339B06D877E878F87988BDA01C90104C0880FD1
S11339C0991FAA1FBB1FEA95D2F729813A814B811F
S11339D05C8104C056954795379527950A95D2F78B
S11339E0822B932BA42BB52B89879A87AB87BC8713
S11339F029853A854B855C856D857E858F8598897B
S1133A0060960FB6F894DEBF0FBECDBFCF91DF91A5
S1133A100F910895991B79E004C0991F961708F037
S1133A20961B881F7A95C9F780950895AA1BBB1B1E
S1133A3051E107C0AA1FBB1FA617B70710F0A61BAA
S1133A40B70B881F991F5A95A9F780959095BC01CB
S1133A50CD01089597FB092E07260AD077FD04D0DF
S1133A60E5DF06D000201AF4709561957F4F089524
S1133A70F6F7909581959F4F0895629FD001739FAB
S1133A80F001829FE00DF11D649FE00DF11D929FF6
S1133A90F00D839FF00D749FF00D659FF00D992735
S1133AA0729FB00DE11DF91F639FB00DE11DF91F59
S1133AB0BD01CF01112408952F923F924F925F923E
S1133AC06F927F928F929F92AF92BF92CF92DF922A
S1133AD0EF92FF920F931F93CF93DF93CDB7DEB78F
S1133AE0CA1BDB0B0FB6F894DEBF0FBECDBF099423
S1133AF02A88398848885F846E847D848C849B847A
S1133B00AA84B984C884DF80EE80FD800C811B8187
S1133B10AA81B981CE0FD11D0FB6F894DEBF0FBEB6
S1133B20CDBFED010895DC0101C06D9341505040BB
S10B3B30E0F70895F894FFCFBB
S1133B380100FFFFFFFF010022FFFFFF0401000156
S1133B48001F1F6400010001010101010F010105AB
S9030000FC
