S01800006275696C642F6D6963617A2F6D61696E2E73726563E5
S11300000C9460010C94F0190C94FA190C94041AD1
S11300100C940E1A0C94181A0C94221A0C942C1A80
S11300200C94671A0C947F010C947F010C9495181E
S11300300C94F0170C947F180C94D3190C94831718
S11300400C94C8170C94711A0C94D61A0C947F0152
S11300500C943D1B0C947F010C947F010C947F0144
S11300600C948A180C948A1C0C94691C0C94741CAF
S11300700C947F1C0C949D1C0C944C1C0C947F01C0
S11300800C945E1C0C947F010C947F01EA0F871082
S1130090BC1029112D114D1166116B119C114712C1
S11300A0601275122C135513B013D9139114C41480
S11300B0C814D4141B157615931500002110422082
S11300C063308440A550C660E770088129914AA135
S11300D06BB18CC1ADD1CEE1EFF1311210027332AC
S11300E05222B5529442F772D662399318837BB385
S11300F05AA3BDD39CC3FFF3DEE36224433420043C
S11301000114E664C774A44485546AA54BB52885D4
S11301100995EEE5CFF5ACC58DD55336722611168B
S11301203006D776F6669556B4465BB77AA7199724
S11301303887DFF7FEE79DD7BCC7C448E558866813
S1130140A7784008611802282338CCC9EDD98EE974
S1130150AFF9488969990AA92BB9F55AD44AB77AEB
S1130160966A711A500A333A122AFDDBDCCBBFFBC4
S11301709EEB799B588B3BBB1AABA66C877CE44CFB
S1130180C55C222C033C600C411CAEED8FFDECCD14
S1130190CDDD2AAD0BBD688D499D977EB66ED55ECB
S11301A0F44E133E322E511E700E9FFFBEEFDDDF64
S11301B0FCCF1BBF3AAF599F788F8891A981CAB1F0
S11301C0EBA10CD12DC14EF16FE18010A100C23022
S11301D0E3200450254046706760B9839893FBA3DD
S11301E0DAB33DC31CD37FE35EF3B1029012F32272
S11301F0D2323542145277625672EAB5CBA5A8952D
S113020089856EF54FE52CD50DC5E234C324A014C1
S113021081046674476424540544DBA7FAB79987BC
S1130220B8975FE77EF71DC73CD7D326F236910611
S1130230B01657667676154634564CD96DC90EF904
S11302402FE9C899E9898AB9ABA944586548067861
S11302502768C018E1088238A3287DCB5CDB3FEB1C
S11302601EFBF98BD89BBBAB9ABB754A545A376AB1
S1130270167AF10AD01AB32A923A2EFD0FED6CDDEC
S11302804DCDAABD8BADE89DC98D267C076C645C01
S1130290454CA23C832CE01CC10C1FEF3EFF5DCFFC
S11302A07CDF9BAFBABFD98FF89F176E367E554E51
S11302B0745E932EB23ED10EF01E00081C1814106A
S11302C011241FBECFEFD0E1DEBFCDBF11E0A0E00F
S11302D0B1E0ECE2FDE300E00BBF02C007900D9239
S11302E0A431B107D9F710E1A4E1B1E001C01D9236
S11302F0A536B107E1F70E94B2150C94941E0C9434
S11303000000362F272FFC014383528361837083BF
S1130310BA01832F922F0895FC01918180E02081FE
S113032030E0282B392BC90108959FB7F8948093A6
S1130330E2029FBF0895282F9FB7F89481E030917F
S1130340E202321380E09FBF089580910501882363
S113035039F481E090911C01923019F080E0089505
S113036080E00895C0980895B89A08958FB7F894D6
S11303701092E1028FBF08959FB7F89481E0209115
S1130380E102211180E09FBF08959FB7F8948BB3D9
S113039024E082278BBB9FBF08959FB7F8948BB34B
S11303A021E082278BBB9FBF089586B708959FB72E
S11303B0F8948BB322E082278BBB9FBF08959FB72D
S11303C0F89481E030912C0220912D02321380E0C8
S11303D09FBF0895F89428E088E190E00FB6F89460
S11303E0A89581BD0FBE21BD0000FECFC09A08951F
S11303F087B78F7D87BF089587B78F7E87BF08959E
S1130400882311F06E9A08956E98089589B78F7BAA
S113041089BF08954FB7F89420913802309139027A
S11304208CB59DB556B752FF04C02F5F3F4F8CB5B6
S11304309DB54FBF40E050E0A90133272227A0E03B
S1130440B0E0282B392B4A2B5B2BB901CA01089544
S11304506F927F928F929F92AF92BF92CF92DF92D0
S1130460EF92FF920F931F93A090C601B090C70123
S1130470C090C801D090C9019501A60160E070E068
S113048080E090E0FEE4AF2EE3E8BE2ECC24DD2431
S1130490EE24FF2400E010E00E94BA1C39014A0156
S11304A000E20E94841D59016A01A401930156953A
S11304B04795379527952A0D3B1D4C1D5D1D57FF0C
S11304C005C05F772F5F3F4F4F4F5F4F2093C601AB
S11304D03093C7014093C8015093C901C9011F91CA
S11304E00F91FF90EF90DF90CF90BF90AF909F90CF
S11304F08F907F906F9008951092EB0F1092EA0FF7
S11305001092BC011092DB021092F30F1092C00102
S113051010923B0210923A02089580914D108F3F41
S113052089F0282F30E0F901E75AFE4F908190932B
S11305304D109F3F11F490935E10275A3E4F9FEF4A
S1130540F9019083089583B783BF00B600FCFDCF03
S11305500895DE9A0895DE980895FC01238130E021
S113056040E050E0808190E0A0E0B0E0B82FAA27FE
S113057099278827282B392B4A2B5B2B618170E024
S113058080E090E0CB0177276627262B372B482B7A
S1130590592B828190E0A0E0B0E0BA2FA92F982FC8
S11305A08827282B392B4A2B5B2BB901CA010895C4
S11305B081E0849B80E00895882311F06F9A089568
S11305C06F9808959FB7F8948CB95E9A9FBF089569
S11305D080E00E940002BA9ABB98B99A6C9A80E0B3
S11305E00E94DC02709A6B986A98689881E00E9475
S11305F0000208959FB7F894E82FF0E0E75AFE4F01
S113060020812F3F49F421E030E040915E104817EB
S113061029F020E030E002C021E030E0211531056E
S113062089F420914D102F3F19F480934D1006C08A
S1130630E0915E10F0E0E75AFE4F808380935E10F5
S113064080E001C085E09FBF089590912F01992318
S113065099F5882389F581E080932F0180910C011D
S113066080933001209124012170209357018091BF
S11306701101909112019093320180933101809184
S113068025018093330131E0211130E020912401D0
S1130690267EE32FF0E0EE0FFF1FE35FFE4F808125
S11306A091819093120180931101232B20932401B3
S11306B084E10E94FA0208958091240180FF02C01F
S11306C08B7F01C08D7F8093240108951F93182F81
S11306D081E00E9400021FB9779BFECF8FB11F916A
S11306E00895EF92FF920F931F93182F062FE72E72
S11306F0FFB6F8940E94BC01882319F0FFBE80E085
S11307000AC0FFBE812F0E9466038E2D0E946603DD
S1130710802F0E9466031F910F91FF90EF90089520
S1130720CF92DF92EF92FF920F931F93CF93DF93B9
S11307304FB7F8940091561010915710E090D502DD
S1130740F090D602C0913402D091350220913A0142
S113075030913B01CE010A962817390708F4C901E4
S11307604FBF6C010894C108D10813C001151105CD
S113077029F0F801EC0FFD1F808101C080E00E9488
S11307806603E114F10421F0F701EC0FFD1F8083EF
S11307902196CC15DD0550F381E00E94DC028FB771
S11307A0F8940115110531F0F801EC0FFD1F90814B
S11307B09FB901C01FB8D0933502C09334028FBFD4
S11307C080E0DF91CF911F910F91FF90EF90DF9028
S11307D0CF9008952FB7F89450933B0140933A017A
S11307E090935710809356107093D6026093D5025D
S11307F010923502109234022FBF4115510521F099
S11308008FB10E949003089589E00E94FA0280E06B
S113081008950F931F93CF93DF93EC01062F1FB717
S1130820F8940E94BC01882319F01FBF10E012C085
S11308301FBF8FE790E09093E0018093DF018FE783
S11308400E946603182F80E090E0BE01402F50E024
S11308500E94EA03812FDF91CF911F910F91089598
S11308600F931F93CF93DF93C091C401D091C5011F
S11308701AA5112309F41FE10E94B20180917501A8
S1130880811739F0612F70E0606E706885E10E9415
S113089071031093750108811FB7F8940E94BC017D
S11308A0882311F01FBF12C01FBF8EE390E0909306
S11308B0E0018093DF018EE30E946603402F4150E4
S11308C0CE0160E070E050E00E94EA03DF91CF9136
S11308D01F910F9108958FB7F8941092E3028FBF80
S11308E008950F931F931FB7F89402B70E94D50180
S11308F020913D0130913E0140913F0150914001D2
S113090081FF0FC091B782B72F5F3F4F4F4F5F4FAB
S1130910290F311D411D511D280F311D411D511D30
S113092004C0200F311D411D511D1FBFB901CA0153
S11309301F910F910895DF92EF92FF920F931F93EF
S1130940D82E7A018B010E9471044D2D50E09A013A
S1130950E3E0220F331FEA95E1F7240F351FF90175
S1130960E05CFD4F6083718382839383E482F5822C
S113097006831783F901E85BFD4F808183608083E0
S11309808DE00E94FA021F910F91FF90EF90DF908B
S1130990089580911501813059F080915A0281FDAA
S11309A007C082E04AE050E060E070E00E949B04EF
S11309B008959FB7F8948091D8028A3029F481E091
S11309C02091BC01243009F080E09FBF882341F0CE
S11309D081E10E94FA028FB7F8941092230105C0B6
S11309E08FB7F89491E0909323018FBF08951F93DC
S11309F01FB7F89480915A10882341F48FE00E9425
S1130A00FA02882319F481E080935A101FBF1F91C2
S1130A10089580911B01882309F052C0809102013E
S1130A208F3F09F04DC00E94BC01882309F448C0DF
S1130A3081E08093680980915801882311F0109215
S1130A406809809168098823E9F10E94A501882337
S1130A5011F00E94F60180911C01823049F58091C9
S1130A600501882329F5209103012F3FE9F08FEF39
S1130A7080930501822F90E0FC01ED52FE4F3081FE
S1130A80309303013F3F11F4309304018D529E4F84
S1130A903FEFFC0130832093780181E080931C01B7
S1130AA08AE00E94FA0204C02093050110921C01FE
S1130AB080911C01882341F40E94000280E0089583
S1130AC081E0089585E0089580E008951F931FB79D
S1130AD0F89490910201981719F01FBF81E033C078
S1130AE08FEF80930201E0911B01EE2329F080E057
S1130AF0F5E02E2F30E005C00E94B6010E940905E2
S1130B001CC06F2F0E94F51DA901092E02C0559526
S1130B1047950A94E2F740FF13C09093020121E045
S1130B2030E002C0220F331F9A95E2F720952E235E
S1130B3020931B0188E00E94FA021FBF80E003C0DB
S1130B40892F8F5FDECF1F91089584E00E94660590
S1130B50089583E00E94660580E0089580E880930C
S1130B6056011092BB011092511010924C10109229
S1130B70770108951F931FB7F89410921E011092E5
S1130B801D010E94FC010E94F80183E00E94660599
S1130B900E94F6011FBF1FB7F894109271011092C2
S1130BA070010E94AE050E94F6010E9406021FBF5A
S1130BB010921901109218010E94AB02DD980E9454
S1130BC0A90283E00E94FA021F910895EF92FF9216
S1130BD00F931F930E940A027B018C012091D5017F
S1130BE03091D6014091D7015091D8018091CF0125
S1130BF09091D001A091D101B091D201820F931FA5
S1130C00A41FB51FE216F3060407150730F0821778
S1130C109307A407B50758F005C082179307A407E4
S1130C20B50790F5E816F9060A071B0768F59C0155
S1130C30AD012E193F09400B510B213060E83607F6
S1130C4060E0460760E0560718F1D801C7018050FC
S1130C509048AF4FBF4F8093D5019093D601A09396
S1130C60D701B093D80120503048404050402093E1
S1130C70CF013093D0014093D1015093D20120E0B1
S1130C8030E840E050E014C020E030E040E050E0C4
S1130C908093D5019093D601A093D701B093D80146
S1130CA01092CF011092D0011092D1011092D20172
S1130CB08CB59DB50396AC014E195F0942175307D5
S1130CC018F4C9018E0D9F1D009711F481E090E086
S1130CD001979BBD8ABD80E186BF87B7806187BFCE
S1130CE01F910F91FF90EF900895DF92EF92FF9282
S1130CF00F931F937B018C010E940A02DFB6F894C4
S1130D006093D5017093D6018093D7019093D80155
S1130D10E092CF01F092D0010093D1011093D2015F
S1130D200E94E605DFBE1F910F91FF90EF90DF90C8
S1130D300895CF92DF92EF92FF920F931F931FB704
S1130D40F89401B7C2B60E94D5010C1511F081FFC9
S1130D5002C01FBF6BC080912B028823D1F10E9477
S1130D6071042091DD023091DE024091DF02509146
S1130D70E002C0905201D0905301E0905401F090F1
S1130D805501621B730B840B950B6C157D058E0549
S1130D909F0528F010922B0286EE61E01EC0D70159
S1130DA0C601820F931FA41FB51F20913D013091EE
S1130DB03E0140913F0150914001821B930BA40BD3
S1130DC0B50B873E9105A105B10518F4823020F4D6
S1130DD002C086EE01C082E060E0782F715000B658
S1130DE001FCFDCF92B7791709F4782F80913D016A
S1130DF090913E01A0913F01B09140019C01AD0151
S1130E002F5F3F4F4F4F5F4F270F311D411D511D26
S1130E10281739074A075B0710F4782F709571BFBC
S1130E201FBF662319F08CE00E94FA021F910F91F4
S1130E30FF90EF90DF90CF9008950F932093F40FDD
S1130E403093F50F4093F60F5093F70F009374010E
S1130E50EFB7F894F1E0F0932B026093DD02709306
S1130E60DE028093DF029093E002209352013093DC
S1130E7053014093540150935501EFBF0E949906CA
S1130E800F9108950E94B201809137019091380129
S1130E9061E00E94090408950F931F93082F1FB760
S1130EA0F8940E94BC01882319F01FBF80E004C09D
S1130EB01FBF802F0E9466031F910F91089589E040
S1130EC00E944C070895FC0115A68E9640E050E060
S1130ED060E070E80E94810108951F931FB7F894A1
S1130EE00E94280266E470E00E94011E0B96909313
S1130EF05C1080935B10BC0180E090E00E9475065A
S1130F001FBF1F9108958FB7F894609167098FBF31
S1130F1085E0689FB0011124625D7E4F706488E1B2
S1130F200E94710308951F931FB7F894809176016E
S1130F30882331F061E070E080915510882311F42A
S1130F4060E070E0762F6627770F770F770F809138
S1130F50C301882331F081E090E02091E60222234E
S1130F6011F480E090E0626E7262F4E0880F991FE1
S1130F70FA95E1F7682B792B81E10E9471031FBF79
S1130F801F910895DF93CF930F92CDB7DEB7898376
S1130F900E94F80190E296BF8981882319F08EB5EA
S1130FA0806402C08EB58F7B8EBD87B7806287BF99
S1130FB080E00F90CF91DF91089581E00E94C207F5
S1130FC00895EAEBF0E06927660FF11DE60FF11DC5
S1130FD0C895382F202D3196C8953025C90108951C
S1130FE00F931F93082F162F8091BC01813079F045
S1130FF0813038F0823009F441C0833009F002C1F5
S11310004EC0002309F417C10E947C0211C10023C1
S113101009F011C180913A0290913B020E94E107CC
S113102090933B0280933A0282E08093BC01109338
S1131030F30F143409F0E6C080912401982F9170C5
S113104080FF03C08695869501C08695817009F05E
S1131050D9C080912401992311F0846001C0826079
S11310608093240180912401877E886080932401E9
S1131070109225018FEF80930C01DDC0002309F04D
S1131080C1C06093C00180913A0290913B020E94DA
S1131090E10790933B0280933A0283E0CAC08091B7
S11310A0DB028F3F09F4AEC0002309F447C082304D
S11310B008F4A8C0E091EA0FEE2311F0E15001C05A
S11310C0E2E0AE2FB0E0A651B04F12968C91129789
S11310D0382F20E0EE2311F0E15001C0E2E0F0E00F
S11310E0E651F04F428150E0422B532B20913A02BB
S11310F030913B024217530709F084C080E00E94FC
S113110025032091C001E0912C0230912D028E2FF5
S11311108F5F863010F4982F01C090E0931709F484
S113112071C0F0E0E45DFD4F228380932C02863091
S113113010F010922C020E94F70464C0823008F46C
S11311404DC0E091EB0FF0E0E651F04F2281309179
S11311502401932F9695969596959370892F90E0F8
S11311608130910521F08230910501F50FC0832F64
S1131170877E806180932401222311F080E001C0E6
S113118085E08093250120930C0110C080912501F6
S1131190843360F4E0911101F0911201E80FF11D24
S11311A02083809125018F5F8093250180913A02ED
S11311B090913B022091EB0FE22FF0E0E651F04FCB
S11311C062812F5F2093EB0F233010F01092EB0F0E
S11311D00E94E10790933B0280933A028091EA0FC8
S11311E0E82FF0E0E651F04F12838F5F8093EA0F0F
S11311F0833010F01092EA0F8091DB028F5F8093AE
S1131200DB0219C00E947C02809134018D7F80939F
S1131210340181E00E94250380912301882331F069
S113122084E08093BC010E94D90405C0002319F016
S113123081E08093BC011F910F910895882311F4DC
S11312401092350108959FB7F894809317019FBFBA
S113125084E00E94FA0208951F93182F21E030E0E1
S113126030931E0120931D01109258010E9409051C
S1131270812F0E9423091F9108950F931F931FB775
S1131280F89480911D0190911E018830910589F494
S11312900E945F070E94A9050E94F60181E090E088
S11312A090931E0180931D0183E00E9423091FBFB8
S11312B02FC00E94B20180915F10882311F085E055
S11312C001C084E00E944C0783FD05C080E00E94B9
S11312D04C0783FD04C001E083E090E003C000E01C
S11312E085E090E090931E0180931D010E94F60119
S11312F01FBF002339F010923C010E94A9050E94EF
S11313006D0706C060E471E080E090E00E9475061D
S11313101F910F910895CF92DF92EF92FF920F9356
S11313201F93CF93DF93EC01FB0180911501813072
S113133009F453C04A3019F04D3059F408C028A5B7
S1131340822F992787FD90952583948302C0138269
S11313501282FFB6F8948091CB01882311F5809115
S1131360510190E0FC01EE0FFF1FE758FE4F008192
S11313701181D183C08301968F7190708093510144
S11313802091D902281719F481E08093CB01809130
S113139052108823E1F40E94C90481E08093521022
S11313A016C00E94CD010E94D70181E08093CB0139
S11313B080935001809114018F5F80931401809178
S11313C05A028D7F80935A020E94EA018E01FFBE69
S11313D0E02EE7016E01D12EE601CE01DF91CF911F
S11313E01F910F91FF90EF90DF90CF900895CF92CF
S11313F0DF92EF92FF920F931F93DF93CF930F929D
S1131400CDB7DEB76C01142FF52E0FB7F8946983AE
S11314100E94BC016981882319F00FBF00E019C044
S11314200FBFC60ED11C8C2D80680E946603082F46
S1131430C60196958795807C0E946603412F5F2D97
S11314406A0114E0F60181916F010E946603115054
S1131450C9F7802F0F90CF91DF911F910F91FF90CB
S1131460EF90DF90CF900895DF93CF9300D000D01A
S1131470CDB7DEB78FB7F8942091C1019091C20126
S1131480AE014F5F5F4F2983FA0191832091D90107
S11314909091DA012B839C838FBF88E691E060E012
S11314A00E94F7090F900F900F900F90CF91DF914A
S11314B008958091DD019091DE010097F9F421E017
S11314C030E03093F20F2093F10F83E791E0909393
S11314D0DE018093DD011092BE011092BD0181E016
S11314E08093BF015E9A569A809173013093BE0136
S11314F02093BD010E94E20280E0089585E00895F2
S1131500809134018E7F809334018EE78093730140
S11315100E94590A0895982F9D57923050F4909143
S1131520340191609093340190E298279093DA0209
S11315308DE7809373010E94590A08959FB7F89428
S1131540E82FF0E0EF51FD4F8081882321F481E002
S1131550808380E001C081E09FBF089581E00E9404
S11315609E0A8823D1F42FB7F894809118019091A2
S11315701901009711F02FBF0EC081E090E0909305
S11315801901809318012FBFDD9A64E170E080E0B7
S113159090E00E94750680E0089582E00E949B011D
S11315A0882331F481E00E949B01882319F0F3CF52
S11315B089E0089585E008950F931F93182F0FB7BE
S11315C0F89480E00E949E0A8823E1F510930201BA
S11315D00E94A501882311F088E010C080911C01AD
S11315E0882311F40E94E80280911C01882349F4A5
S11315F081E080931C01109278018AE00E94FA0233
S11316002DC08091D3018F3F49F481E090E0209177
S11316100401222329F080E090E002C081E090E000
S11316200097E1F4809103018F3F19F410920301B4
S113163006C0E0910401F0E0ED52FE4F10821092DA
S113164004010CC021E030E002C0220F331F1A95C0
S1131650E2F780911B01822B80931B010FBF80E076
S11316601F910F9108950F931F93082F1FB7F8949C
S113167080E00E949E0A882319F01FBF85E01BC0EA
S11316800E94A501882379F480911C01882379F4B0
S113169082E080931C01109205010E94E8020E94DE
S11316A0B4010E94B2010093020180E003C00E94D1
S11316B0B60181E01FBF1F910F91089582E090E071
S11316C0909371018093700181E08093BB018091BC
S11316D00201843029F084E00E94330B882319F43A
S11316E00E944207089584E00E94DC0A08951F9333
S11316F01FB7F89480917001909171010097D1F017
S11317001092BB0180917701882311F0B79904C02E
S11317100E9908C0882319F08150809377010E94A4
S11317205E0B0AC081E090E0909371018093700198
S1131730109277010E94A5051FBF1F9108950E9472
S1131740AE050E94F6010E94B20188E00E944C0797
S113175088E00E944C070E94F6010E94A5050E94A1
S1131760770B0895EF92FF920F931F93CF93DF931C
S11317708C018091DF0186FF51C18F7B8F3309F08B
S113178090C1C0913701D0913801488140937201D2
S113179080917001909171018530910509F444C0E4
S11317A08630910509F492C08230910509F02FC169
S11317B085E090E0909371018093700150915601FF
S11317C0242F30E0852F90E02817390754F5B79976
S11317D007C00E9905C0842F8095850F809356010C
S11317E04A32F8F44423B1F0BE016F5F7F4F4830B2
S11317F028F080E090E047E050E009C086E090E007
S1131800909371018093700180E090E050E00E9419
S1131810EA0347C11092BB010E94F6010E94A5058C
S1131820F3C00E949F0B3DC186E090E0909371014C
S1131830809370018091C301882309F440C0809192
S1131840E6028823E1F58E010F5F1F4FC8010E9455
S11318508C0185FF34C046E0E42EF12CEC0EFD1E15
S1131860C7010E948C014FB7F8942091D90130919F
S1131870DA014FBF8217930739F0C7010E948C0128
S11318802FEF8F3F9207D9F4C8010E948C01877013
S113189090708130910599F40E94F6010E94B20182
S11318A08AE00E944C070E94F6010E94B2016091F6
S11318B072016750CE0108960E940904F2C0BE016D
S11318C0685F7F4F4091720147509ECF0E94F6019E
S11318D080917701882311F40E94A50580917701F6
S11318E0882311F0B7990AC00E9B08C080914C1050
S11318F0882321F0909172019B3038F48091370154
S1131900909138010E9463072FC08130A1F4809127
S1131910370190913801E0915110F0E0EE0FFF1F74
S1131920EE0FFF1FE850F04F4081518162817381B7
S11319308E960E9481018091511090E001968770EB
S113194090708093511080914C10815080934C1072
S1131950882351F080913701909138010E946307E8
S11319601092511010924C1080917201FE01E80FF8
S1131970F11D808187FF48C00115110509F444C099
S1131980CE0101960E948C0187703091370120911D
S11319903801823099F5E091C401F091C501309786
S11319A099F180911D0190911E018730910561F597
S11319B0832FEC017E01F22EE70193818B8198172E
S11319C019F50E94FC01A091C401B091C5019D01CB
S11319D0285D3F4F888191E0F9019483C80FD11DA0
S11319E0CE010197FC01808198968C9388818F7732
S11319F0F901818380E00E942C0906C0813021F422
S1131A008BE00E94FA024DC00E94770B4AC01092EC
S1131A10BB010E94F6010E94A50543C08E3309F064
S1131A2040C00E94F60180911D0190911E018830F2
S1131A30910591F40E94B2010E945F070E94F60191
S1131A400E94A90581E090E090931E0180931D01FE
S1131A5083E00E94230925C080915F10882349F404
S1131A6084E090E090931E0180931D010E943D0943
S1131A7018C00E94A90583E090E090931E01809312
S1131A801D010E94280266E371E00E94011E0B966C
S1131A9090934F0180934E01BC0180E090E00E943E
S1131AA07506DF91CF911F910F91FF90EF900895EC
S1131AB01F9383E00E94330B182F882319F083E0CF
S1131AC00E94DC0A812F1F910895EF92FF920F93D9
S1131AD01F93CF93DF93EC01162F82E00E949E0A9E
S1131AE0882309F06AC080916909982F9F5F9093B9
S1131AF069098B830FB7F89482E00E949B018823C5
S1131B0029F40FBF0E946B0481E05AC058E2E52E0D
S1131B10F12CEC0EFD1E84E00E949501D093EA01A5
S1131B20C093E9010FBF812F835FFE0181938F0171
S1131B30CF010E948C018072907089831A82C8013F
S1131B400E948C018164986889839A83F7011482C6
S1131B5018A61182CE018E9640E050E060E070E855
S1131B600E94810151E05093E5022091E9013091F6
S1131B70EA014FB7F89480911D0190911E018830BD
S1131B80910519F08130910511F04FBF18C082E022
S1131B9090E090931E0180931D0150935F10309349
S1131BA0C5012093C40110923C014FBF0E94580DFF
S1131BB0882329F40E94300402C085E001C080E03B
S1131BC0DF91CF911F910F91FF90EF900895952F82
S1131BD02D3108F03EC0E42FF52F83876683778389
S1131BE05FB7F8943091C1018091C2015FBF348323
S1131BF085835FB7F89430910601809107015FBF38
S1131C003087818780910901882359F01092090156
S1131C108FE38287842F622F0E94650D882389F4C5
S1131C2008952093E7011092E801409321019093D5
S1131C3022018EE00E94FA0280910901882359F062
S1131C4004C09FEF9093090108951092CA0180E0A7
S1131C50089582E0089589E008951F93CF93DF9358
S1131C60182FE82FF0E0EE0FFF1FEA5CFD4F118202
S1131C70108210921301C0913602D091370220973E
S1131C8021F08091531080FF03C081E08093130101
S1131C9080911301882381F4CE0106960E948C0161
S1131CA0BC0128812D508B85AE010E94E70D88234D
S1131CB019F086E10E94FA02812F0E941E09DF9129
S1131CC0CF911F9108950F931F93DF93CF930F929A
S1131CD0CDB7DEB78C0180911301882361F4809124
S1131CE03602909137028017910729F480E06983C6
S1131CF00E942D0E6981662319F00E94CD0120C037
S1131D000E94C5013FB7F89420916410E22FF0E0DF
S1131D10EE0FFF1FE551FE4F8081918108171907CF
S1131D2071F4822F8F5F80936410803210F01092D0
S1131D30641080915001882311F0109250013FBF2C
S1131D4083E045E050E060E070E00E949B040F9067
S1131D50CF91DF911F910F91089581E04CE251E002
S1131D6060E070E00E949B0408956F927F928F92CE
S1131D709F92AF92BF92CF92DF92EF92FF920F9316
S1131D801F93CF93DF934B015C01C0E4D2E060E08A
S1131D9070E0762EFB01B3E0EE0FFF1FBA95E1F77A
S1131DA0E60FF71FA0E4CA2EA2E0DA2ECE0EDF1E45
S1131DB0D60118966C90189761FECEC0E880F98021
S1131DC00A811B818C819D81AE81BF81A501940113
S1131DD02E193F09400B510B281739074A075B0797
S1131DE008F4BAC060FE06C0E85BFD4F80818D7FB9
S1131DF0808309C08E0D9F1DA01FB11FF601808333
S1131E009183A283B383F72DF23009F48DC0F330AC
S1131E1009F49EC0F13009F0A6C080911501882311
S1131E2031F4809151028D7F809351029CC0EFB6B2
S1131E30F89480911601882309F582E00E949B01A1
S1131E40882331F083E00E9495010E94BA052AC0DC
S1131E5080E00E949B01882309F097C084E00E94DF
S1131E609B01882321F083E00E9495011BC083E03D
S1131E700E949B01882309F48EC014C0809116012E
S1131E80813099F48091BC01882319F484E0809313
S1131E90BC018091D802882319F48AE08093D80287
S1131EA00E94D9040E94D7017AC08230A9F410920A
S1131EB0D902109251011092521081E08093CB010B
S1131EC010926410109239011092410180935001D4
S1131ED080E10E94FA02E6CF833099F40E94AE0AB0
S1131EE0893031F4809116018F5F8093160155C0BB
S1131EF0853019F4109216014EC0882309F04BC0A6
S1131F00D1CF843009F04BC0809151028D7F8093F2
S1131F10510210921501109216010E94C5010E94EF
S1131F20D7010E94CD013BC0809115018130D9F0C9
S1131F3080911401853150F01092140181E0809356
S1131F4015010E94D7010E94EA010DC080E001C082
S1131F5081E00E94FA0207C06F5F7F4F29966530C7
S1131F60710509F016CF8DE00E94FA02DF91CF913E
S1131F701F910F91FF90EF90DF90CF90BF90AF90A3
S1131F809F908F907F906F900895809116018F5F3E
S1131F908093160173CF0E94CD010E94AD0EEFBE57
S1131FA0E2CF9F92AF92BF92CF92DF92EF92FF92D5
S1131FB00F931F93CF93DF93E82FF0E0E731F10500
S1131FC008F0B5C5EA5BFF4FEE0FFF1F0590F491D3
S1131FD0E02D09948FB7F894209151019091D90282
S1131FE0291739F49091CB01992319F410925210C6
S1131FF09CC08FBFE091D902F0E0EE0FFF1FE758BD
S1132000FE4FC081D1810881102F1D5010933E02D4
S1132010EB84CE0106960E948C01F82EA92ECE01E7
S113202008960E948C0188879F83E091D902F0E092
S1132030EE0FFF1FE758FE4F0190F081E02D1D3198
S113204008F04DC0DF0115961196FC921197A582F8
S11320501696EC92169714961C9314978091280167
S113206090912901009709F0E3C42FB7F89485E013
S113207080932B0110922C01F0932701E093260109
S113208082E090E0909329018093280110922E0120
S113209010922D01015000932A012FBF9FB7F8948D
S11320A08091E501882331F481E08093E501109269
S11320B0E60101C080E09FBF882329F00E94F70455
S11320C010921401B5C41092290110922801809134
S11320D014018F5F809314010E94CD01A9C48091E3
S11320E014018F5F809314010E94CD018091D90265
S11320F08F5F8093D902803210F01092D9028091C0
S1132100CB01882309F494C41092CB0191C48FB7F6
S1132110F8942091390190916410291741F4909119
S11321205001992321F4109241018FBF00C58FBF44
S1132130E0916410F0E0EE0FFF1FE551FE4F408187
S11321405181FA013596618170E0DA0115969C910E
S113215080E0682B792B868124810E94E70D8823F7
S113216009F4E5C40E94CD0183E045E050E060E05D
S113217070E00E949B04DBC41FB7F8940E94DD0743
S1132180C1E0D0E0D0931E01C0931D0110921F0145
S113219010925801109275011FBF1FB7F8940E9446
S11321A0AE05D0937101C09370011092BB010E94DF
S11321B0060280E488BF8AB780628ABF8AB78F7EAE
S11321C08ABF89B7806489BF1FBF1FB7F894809105
S11321D01801909119018430910519F483E00E944B
S11321E04C071FBF1FB7F8940E94F60180E00E94BD
S11321F066051FBF82E00E9495010E94C5011FB7BA
S1132200F894EBEEF1E080E090E044E350E0849F4A
S11322109001859F300D949F300D112429513D4F1D
S11322202193319301968032910589F710926410BD
S113223010923901109241011092500180911601BF
S11322408F5F809316010E94AD0E1FBF109235015F
S11322506EC480E00E9495019DC38FB7F8941091DD
S113226017018FBF83E00E949B01882319F00E940D
S1132270BA0503C082E00E949501C091E901D091A2
S1132280EA010E946B048A858F3309F050C48FEFF2
S113229080930901CE01612F85C21FB7F894809104
S11322A05D10882309F06EC381E080935D108091F6
S11322B01801909119018430910521F481E00E9464
S11322C0DC0A60C386E00E94FA025CC38FB7F8940C
S11322D010925D102ACF8FB7F89490911A01992328
S11322E009F023CF8FBF11E0869B10E08091DB01C2
S11322F09091DC019817E1F01817D1F484E090E094
S113230090931901809318018FB7F89491E09093FA
S11323101A018FBF8DE160E070E00E9471030E949A
S1132320340A0E94F6010E94B20182E00E94FA027D
S11323301093DC0187E029C39FB7F89480910201D0
S11323409FBF823009F45DC0833030F4882359F094
S1132350813009F0ECC33CC0833009F46CC0843094
S113236009F0E5C391C00E94B2011FB7F8948091AF
S11323701801909119018230910509F003C383E09B
S113238090E090931901809318018DE168E170E069
S11323900E94710381E08093DB0110921A01869BF5
S11323A080E08093DC0187E00E94FA0281E00E94D1
S11323B04C078CE16FE772E00E9471030E9483076F
S11323C00E94930787E166E57AE20E947103DAC20C
S11323D00E94B20186E00E944C070E9483070E947B
S11323E093070E94340A0E94F6010E94B20183E01E
S11323F00E944C070E94F60181E00E94660586E077
S1132400C4C20E94B2011FB7F8940E94BC01882381
S113241011F01FBF0AC01FBF83E50E94660380E05E
S11324200E94660380E00E9466030E94F60182E037
S11324300E9466057CC39FB7F89480911D019FBFDD
S1132440843039F0883041F08230D9F40E9430046D
S11324506EC30E943D096BC30E94B2010E945F07D4
S11324600E94F6010E94A9052FB7F89481E090E03C
S113247090931E0180931D012FBF83E00E942309C6
S113248056C30E94A90553C30E94420750C31FB7F5
S1132490F8948091D5029091D6021092D6021092AF
S11324A0D502109257101092561010923B011092C0
S11324B03A0110923502109234020E94B20B62C2A9
S11324C08FB7F894909178019093050192E09093DE
S11324D01C018FBF80910501882309F028C30E9445
S11324E0B4010E94B20188E050C2E0913701F0913A
S11324F03801EF01A8960081DF01A00FB11D8C9176
S1132500881F8827881F8B838C918F7789831197E5
S11325108C9180A7C0913701D09138019FB7F8946E
S1132520809176019FBF882301F12696CE010E94F7
S11325308C014FB7F8942091D9013091DA014FBF43
S11325408217930761F0CE010E948C0121E030E0F4
S1132550BFEF8F3F9B0729F020E030E002C021E06D
S113256030E02115310509F46FC00D3008F46CC05A
S1132570C0913701D0913801CE0108960E948C0198
S11325807B812FEF20935410AFB7F89460915410CF
S1132590E2E4F1E020E030E040815181481759073E
S11325A041F44281471721F460935410AFBF48C0EF
S11325B0622F2F5F3F4F33962430310569F76093C4
S11325C05410AFBF209154105FB7F8942F3F21F0FF
S11325D030912001321721F42091200141E001C003
S11325E040E030E0F901EE0FFF1FE20FF31FEE5B56
S11325F0FE4F918380837283442331F080912001C4
S11326008F5F8370809320015FBF8BA58823C1F007
S11326108A858F33A9F48E010A5F1F4FC8010E9477
S11326208C014FB7F89420910601309107014FBFF8
S1132630BE01645F7F4FCE014B850E948B09EC0184
S1132640D0933801C09337018FB7F8941092BB012F
S11326508FBF0E94770B6BC280917401882311F5A0
S1132660EFB7F89460915201709153018091540135
S1132670909155012091DD023091DE024091DF02FC
S11326805091E002620F731F841F951FEFBF2091CA
S1132690F40F3091F50F4091F60F5091F70F00E0D1
S11326A00E941D070E94710450C00E9471049B0186
S11326B0AC018FB7F89410922B028FBFE0E4F2E0E4
S11326C060E070E099249FEFE92E9FEFF92E9FEFD1
S11326D0092F9FE7192FDB0183E0AA0FBB1F8A95FF
S11326E0E1F7A60FB71FA05CBD4F18968C91189701
S11326F081FF1BC080819181A281B38159016A014C
S1132700A81AB90ACA0ADB0A84819581A681B7810D
S11327108A199B09AC09BD098E159F05A007B1074D
S113272024F47C018D01992493946F5F7F4F399633
S11327306530710581F6992009F4F9C11E141F044E
S1132740100611062CF0CA01B9010E94B50EEFC1A2
S1132750CA01B901A801970101E00E941D07E7C160
S11327608091CA0190910901891709F4E0C180930D
S113277009018823D1F48091210190912201609173
S1132780E7012FE3DC011A962C930E94650D682F54
S1132790882309F4CCC18FEF809309018091210132
S11327A0909122010E94630EC2C18FEF80930901B0
S11327B0BEC13FB7F89410925A109091D80281E0AC
S11327C0983009F080E021E0993009F020E0882376
S11327D011F4222351F01092D802E0913F02F0E06C
S11327E0EE0FFF1FED51FE4F10823FBF882311F4FF
S11327F0222309F1909150109F5F90935010909173
S1132800D401933499F49FB7F89480912D022091C8
S11328102C02281739F08F5F80932D02863010F038
S113282010922D029FBFFF2400E00AC001E0082798
S1132830FF24F39405C0992309F04EC000E0FF245F
S11328409FB7F894809123019FBF882339F08FB7F5
S1132850F8949AE09093D8028FBF32C08FB7F8945F
S1132860E090E3011091E5018FBF0E94DF0188230E
S1132870E1F4EE20D1F41FB7F89482E08093E301F1
S11328800E94DF01882339F4E0912D02F0E0E45D39
S1132890FD4F828101C080E08093E4011FBF83E487
S11328A08093D40110923F0209C01150123040F4B9
S11328B085E48093D40181E080933F0211E001C05C
S11328C010E0FF2051F08FB7F89400932C018FBFD4
S11328D083E10E94FA0201C010E08091D8028A309C
S11328E019F40E94D90423C1112309F420C18FB71C
S11328F0F89410926110109260101092CE0191E041
S11329009093D8028FBF0E94800A882309F40FC1D4
S11329108FB7F89499E09093D8028FBF0E94F70480
S113292006C1569857981092D7021092BF01539A35
S1132930549A579A0E94C5011FB7F894E9E7F1E049
S113294080E090E044E350E0849F9001859F300D47
S1132950949F300D11242659364F219331930196BB
S11329608032910589F71092D90210925101109288
S113297052101092CB01809116018F5F8093160143
S11329800E94AD0E1FBFD3C082E10E94FA02CFC0E5
S1132990539854980E94C501809116018F5F8093CB
S11329A016010E94AD0EC3C0109229011092280195
S11329B09FB7F89480912C019FBF90912D019111A4
S11329C083E0C0912601D091270190912E01992393
S11329D009F0ADC0882341F00E94CD01809114011B
S11329E08F5F8093140124C0109214010E94C501CA
S11329F0109252103FB7F8942091D902E22FF0E0E0
S1132A00EE0FFF1FE758FE4F80819181C817D90749
S1132A1071F4822F8F5F8093D902803210F010926C
S1132A20D9028091CB01882311F01092CB013FBFD2
S1132A300E94C9047CC03FB7F89420913001909162
S1132A40310180913201009157013FBF2223B9F532
S1132A501FB7F89420915001222361F52091390188
S1132A60E22FF0E0EE0FFF1FE551FE4FA080E18062
S1132A7090838183822F8F5F80933901803210F09D
S1132A80109239019091390180916410981719F4CA
S1132A9081E08093500180914101882369F483E0AF
S1132AA045E050E060E070E00E949B0481E0809388
S1132AB0410102C0A92EE82E1FBF9A2D8E2D2FB7DB
S1132AC0F894E02FF0E0EE0FFF1FE35FFE4F9083DA
S1132AD0818380912401002311F08B7F01C08D7FBD
S1132AE08093240110922F012FBF21C08091531095
S1132AF08823E9F0C6E3D2E000E011E0909153109E
S1132B00812F892351F019821882812F809589237E
S1132B1080935310802F0E941E090F5F2296083065
S1132B2031F0110FEBCF809113010E942D0EDF9134
S1132B30CF911F910F91FF90EF90DF90CF90BF90B6
S1132B40AF909F9008950E948D028F3F21F00E94C4
S1132B50D10F81E0089580E008958FB7F894089527
S1132B608FBF0895FF920F931F93FFB6F89489E5E2
S1132B7091E06FEF70E047E150E00E948D1E8FEF0F
S1132B8080934D1080935E1081E08EBD88E080BFFD
S1132B9083E083BF8CB59DB54AE701C0C9012CB55C
S1132BA03DB52817390708F441504423B9F782B7D3
S1132BB092B79817E9F32CB53DB582B792B7981739
S1132BC0E9F38CB59DB54096821B930B35E0969541
S1132BD087953A95E1F790934F1080934E1013BE6A
S1132BE083B78EBD8EB580BF12BE1DBC1CBC8FEFDB
S1132BF086BF86B780937C0080B790E08770907022
S1132C000097D1F7D29AD19AD09ADA9AD99AD89AC7
S1132C1015BA8FEF84BBD498DC9810928900109277
S1132C20880080917D00846080937D0080918A007B
S1132C30887F826080938A001DBC1CBC87B7846037
S1132C4087BF8EB5887F84608EBD80E285BF0E9479
S1132C50A3158823E1F702E016E060914E1070910D
S1132C604F1080E090E02CE0660F771F881F991FBB
S1132C702A95D1F720E031EE40E050E00E94151E85
S1132C802150304029B9309390000BB9109395002E
S1132C901AB8209399003093980000939B001093E6
S1132CA09D0010929A0084E490E09093F00F80933A
S1132CB0EF0F1092E3011092E5011092D8021092E6
S1132CC0CE011092D4011092501010926110109203
S1132CD0601010925A1010923F020E947C021092CF
S1132CE02D0210922C021FEF1093B9018FEF9FEF6A
S1132CF090934301809342011092440190934601C2
S1132D0080934501109247019093490180934801B3
S1132D1010924A0190934C0180934B0110924D0103
S1132D200E94280280936909809100019091010119
S1132D300196A0E0B0E08093C6019093C701A093F0
S1132D40C801B093C90180B7886080BF8BE083BF9E
S1132D5086EE81BF87B7826087BF0E94990688E1AB
S1132D6090E190933801809337018E980E94B401CA
S1132D708C981093D3011092E1021092E202109207
S1132D80E3021092E4020E94B401D69AD59A2FB7B6
S1132D90F89480910601909107012FBF9093DA0176
S1132DA08093D901809108018093C1011092C201DE
S1132DB08FE18093DC028AE18093670981E080934C
S1132DC07601109255101092C3011092E6020E94EF
S1132DD0A3158823E1F7FFBE7894E9E7F1E080E0EA
S1132DE090E044E350E0849F9001859F300D949FD0
S1132DF0300D11242659364F219331930196803298
S1132E00910589F71092D902109251011092521033
S1132E1081E08093CB01EBEEF1E080E090E044E3CD
S1132E2050E0849F9001859F300D949F300D1124B4
S1132E3029513D4F2193319301968032910589F7B1
S1132E4010926410109239011092410111E0109314
S1132E5050010E94D7010E94AE0A80E10E94FA024A
S1132E60109335010E94AE0A1FB7F89443C087B788
S1132E70887BA1F480917D008B7F81F46E990EC0D4
S1132E809AB180919A00892B807C41F480917400DE
S1132E9082FD04C0379B04C021E003C020E001C0D0
S1132EA025E087B790E083709070009779F080B741
S1132EB090E0877090700097D1F781B792B7891B23
S1132EC08C3030F082B7853F28F002C0E5E003C0C3
S1132ED0E2E001C0E3E085B72E1708F4E22FF0E04A
S1132EE0E654FD4FE491837C80628E2B85BF7894F9
S1132EF08895F8940E948D028F3F09F4B8CF1FBFC4
S1132F000E94D10FB1CF1F920F920FB60F920BB642
S1132F100F9211242F933F934F935F936F937F935B
S1132F208F939F93AF93BF93EF93FF930E94A3025A
S1132F3021B730E02F5F3F4F40E050E080913D01EA
S1132F4090913E01A0913F01B0914001820F931FE7
S1132F50A41FB51F80933D0190933E01A0933F01B0
S1132F60B093400178940E949906FF91EF91BF912C
S1132F70AF919F918F917F916F915F914F913F910D
S1132F802F910F900BBE0F900FBE0F901F901895AE
S1132F901F920F920FB60F920BB60F9211242F931C
S1132FA03F934F935F936F937F938F939F93AF93CD
S1132FB0BF93EF93FF930E94A302FF91EF91BF9100
S1132FC0AF919F918F917F916F915F914F913F91BD
S1132FD02F910F900BBE0F900FBE0F901F9018955E
S1132FE078941F920F920FB60F920BB60F92112482
S1132FF01F932F933F934F935F936F937F938F937D
S11330009F93AF93BF93EF93FF930E94FC01789437
S11330101FB7F8948091CF019091D001A091D10174
S1133020B091D2010097A105B10509F051C080917A
S11330301D0190911E018530910561F18630910545
S113304038F48330910559F08430910561F519C045
S113305087309105E9F08830910529F512C0869BE7
S11330600DC084E090E090931E0180931D0167E001
S113307070E080E090E00E94750615C00E946D0724
S113308012C00E94580D882371F40E943D090BC0A0
S113309080E007C00E945F070E94DD070E94A90527
S11330A087E00E942C0980911801909119018130C8
S11330B0910581F482E090E09093190180931801C6
S11330C00E94AB020E94A90280E00E94DC0A02C0B6
S11330D00E94E6051FBFFF91EF91BF91AF919F91B1
S11330E08F917F916F915F914F913F912F911F919C
S11330F00F900BBE0F900FBE0F901F9018957894F1
S11331001F920F920FB60F9211240F900FBE0F90C3
S11331101F90189578941F920F920FB60F92112456
S11331200F900FBE0F901F90189578941F920F92D6
S11331300FB60F920BB60F9211246F927F928F925B
S11331409F92AF92BF92CF92DF92EF92FF920F9332
S11331501F932F933F934F935F936F937F938F931B
S11331609F93AF93BF93EF93FF93DF93CF930F920C
S1133170CDB7DEB7CCB4DDB480E286BFBFB6F89479
S11331800E940A027601E61AF70A0027F7FC009566
S1133190102FE60EF71E081F191F80911D01909134
S11331A01E018530910529F08630910509F07FC014
S11331B05CC086E090E090931E0180931D0181E045
S11331C08093BA0110921F0180E00E94C20780918F
S11331D0C4019091C5018E96B801A7010E94810196
S11331E0E091C401F091C50185A5882349F12081AE
S11331F025503F01620E711CC30129830E94AD0258
S1133200AB01BC014E195F09600B710BC3010E9435
S113321081010E94B20180E090E02981622FA30124
S11332200E94F7090E94F601C3010E94AD02AB019E
S1133230BC014E0D5F1D601F711FC3010E948101FF
S11332408091C4019091C50101960E948C0185FF73
S113325003C081E0809358010E94A9050E94FC01EB
S11332600E94D802882309F07BC01092BA010E9400
S1133270DD078091C4019091C50101960E948C01E3
S113328085FF0DC087E090E090931E0180931D019F
S113329060E071E080E090E00E94750603C080E089
S11332A00E942C090E94D802882309F459C08091F5
S11332B01F01882379F58091BA01882359F581E0AB
S11332C08093BA0180E00E94C2070E94D802A82E0F
S11332D080914C10883090F4E0915110E80FE77021
S11332E0F0E0EE0FFF1FEE0FFF1FE850F04FE082FB
S11332F0F182028313838F5F80934C1081E080936B
S11333001F01D092E201C092E1010E94D8028823F9
S113331011F026C0AA248091BA01813009F51092D7
S1133320BA010E94DD0710921F01AA20C9F48091FE
S1133330E1019091E201C81AD90A2AE0C216D10427
S113334078F480914C10882319F0815080934C10AC
S11333508091C4019091C501009711F00E94630708
S1133360BFBE0F90CF91DF91FF91EF91BF91AF91CD
S11333709F918F917F916F915F914F913F912F9189
S11333801F910F91FF90EF90DF90CF90BF90AF907F
S11333909F908F907F906F900F900BBE0F900FBEF9
S11333A00F901F90189578941F920F920FB60F925A
S11333B011242F938F939F932FB7F8948091380201
S11333C090913902019690933902809338022FBF6D
S11333D09F918F912F910F900FBE0F901F90189572
S11333E01F920F920FB60F9211240F900FBE0F90E1
S11333F01F9018951F920F920FB60F9211240F90E1
S11334000FBE0F901F9018951F920F920FB60F9238
S113341011240F900FBE0F901F9018951F920F92BA
S11334200FB60F9211240F900FBE0F901F90189596
S11334301F920F920FB60F9211240F900FBE0F9090
S11334401F9018951F920F920FB60F9211240F9090
S11334500FBE0F901F9018951F920F920FB60F92E8
S11334600BB60F9211242F933F934F935F936F9357
S11334707F938F939F93AF93BF93EF93FF93809129
S11334807001909171018130910549F482E090E0DE
S113349090937101809370010E945E0B05C080912E
S11334A077018F5F80937701FF91EF91BF91AF9187
S11334B09F918F917F916F915F914F913F912F9148
S11334C00F900BBE0F900FBE0F901F9018951F9278
S11334D00F920FB60F9211240F900FBE0F901F90F2
S11334E018951F920F920FB60F920BB60F921124DC
S11334F02F933F934F935F936F937F938F939F93F8
S1133500AF93BF93EF93FF932FB18091D502909126
S1133510D602009739F0E0913402F0913502E80FB9
S1133520F91F208380913402909135020196909383
S113353035028093340280E00E94DC022091340240
S11335403091350280913A0190913B012817390757
S113355018F40E94900317C08091D5029091D6026E
S11335601092D6021092D502109257101092561053
S113357010923B0110923A011092350210923402DB
S11335802FB10E94B20BFF91EF91BF91AF919F9128
S11335908F917F916F915F914F913F912F910F90F8
S11335A00BBE0F900FBE0F901F9018951F920F9295
S11335B00FB60F920BB60F9211242F933F934F9394
S11335C05F936F937F938F939F93AF93BF93EF9387
S11335D0FF935F9B3FC06CB120913C0230913D0250
S11335E02115310501F18091581090915910280F3F
S11335F0391FF901608301969093591080935810F4
S113360020916210309163108217930718F1109281
S11336103D0210923C028091D7028330D9F0579832
S11336201092D70217C06E3719F481E060E010C021
S1133630809134016D3721F48260809334010AC093
S113364081FF05C08D7F8093340180E2682780E08C
S11336500E94F007FF91EF91BF91AF919F918F91DD
S11336607F916F915F914F913F912F910F900BBE7E
S11336700F900FBE0F901F90189578941F920F9281
S11336800FB60F920BB60F921124FF920F931F9354
S11336902F933F934F935F936F937F938F939F9356
S11336A0AF93BF93CF93DF93EF93FF932091BD012B
S11336B03091BE018091F10F9091F20F28173907D4
S11336C080F4E091DD01F091DE01E20FF31F8081CF
S11336D02F5F3F4F3093BE012093BD010E94E20251
S11336E0C3C01092DE011092DD011092BF01569802
S11336F08091340180FF0AC08E7F809334018091D1
S1133700DA02809373010E94590AAEC08091D802F4
S1133710843009F48BC0853040F4823011F1833059
S1133720A8F5813009F09BC00DC0863009F48CC027
S1133730863008F482C0873009F48DC0883009F0DF
S11337408EC090C08091D4010E948B0A082F83E020
S11337508093D80280916010909161106091D4019F
S11337600EC0809150100E948B0A082F83E0809332
S1133770D8028091601090916110609150100E9465
S1133780E107909361108093601067C01FB7F894AD
S1133790E0913F02F0E0EE0FFF1FEC51FE4F8081FD
S11337A00E948B0A082FF0903F02CF2DD0E0FE013B
S11337B0EE0FFF1FEC51FE4F80916010909161104D
S11337C060810E94E1079093611080936010809162
S11337D0CE018F5F8093CE019F2D913011F5209102
S11337E02B01E0912601F0912701E20FF11D908158
S11337F02F5F20932B0130912A01321720F492E09D
S11338009093E50190E0CC0FDD1FFE01ED51FE4FDA
S11338102081223031F08F3F21F0CC51DE4F98834C
S113382003C084E08093D8021FBF17C0809160104A
S11338300E948B0A082F85E00BC0809161100E94C2
S11338408B0A082F86E004C00E94800A082F87E0B4
S11338508093D80202C088E003C0002329F089E0E5
S11338608093D8020E94F704FF91EF91DF91CF91EA
S1133870BF91AF919F918F917F916F915F914F9184
S11338803F912F911F910F91FF900F900BBE0F90BE
S11338900FBE0F901F9018951F920F920FB60F92A4
S11338A011248F9380919B0087FF02C080919C001C
S11338B08F910F900FBE0F901F90189578941F92C0
S11338C00F920FB60F9211240F900FBE0F901F90FE
S11338D0189578941F920F920FB60F9211240F909F
S11338E00FBE0F901F90189578941F920F920FB6E9
S11338F00F9211240F900FBE0F901F90189578947B
S11339001F920F920FB60F9211240F900FBE0F90BB
S11339101F90189578941F920F920FB60F9211244E
S11339208F939F9380918800909189009F918F91AC
S11339300F900FBE0F901F90189578941F920F92BE
S11339400FB60F9211242F938F939F932FB7F89450
S11339508091CC019091CD0101969093CD018093FB
S1133960CC012FBF9F918F912F910F900FBE0F907D
S11339701F901895ACE2B0E0E0ECFCE10C94561E0C
S113398029833A834B835C836D837E838F839887FB
S1133990A986BA86CB86DC86ED86FE860F87188BD1
S11339A069807A808B809C8069A27AA28BA29CA277
S11339B0840173018FEF9FEFA0E0B0E0E822F922C9
S11339C00A231B2314014424552469847A848B8498
S11339D09C846DA27EA28FA298A664015301A822A2
S11339E0B922CA22DB22340188249924C601B501F4
S11339F0A80197010E94371E69A77AA78BA79CA7E5
S1133A00C401B3010E94371E7B018C01C601B501BC
S1133A10A20191010E94371E5B016C01C401B30134
S1133A200E94371E9B01AC01EA0CFB1C0C1D1D1DE2
S1133A3069A47AA48BA49CA4C401AA27BB27E80E7A
S1133A40F91E0A1F1B1FEA14FB040C051D0520F4B4
S1133A50205030404F4F5F4FC801AA27BB27820F29
S1133A60931FA41FB51F8D8F9E8FAF8FB8A387019F
S1133A70FF24EE2429A53AA54BA55CA540705070FF
S1133A80E20EF31E041F151FE98EFA8E0B8F1C8F96
S1133A90DE2CAA8CCB8C6C8C8D8B8E8D8E8B8F8D2B
S1133AA08F8B88A1888F2D853E854F85588969A184
S1133AB07AA18BA19CA10E94371E7B018C012D81D0
S1133AC03E814F8158856DA17EA18FA198A50E944A
S1133AD0371EE60EF71E081F191F6D897E898F8910
S1133AE0988D6E0D7F1D801F911F6D8B7E8B8F8B2C
S1133AF0988F7E892D2D3A2D4C2D562D8F89988D9A
S1133B00AC96E2E10C94721E0F93DF93CF93CDB782
S1133B10DEB760970FB6F894DEBF0FBECDBF0023AB
S1133B2009F459C029833A834B835C836D837E8374
S1133B308F839887E0E2E01B2D813E814F81588579
S1133B401E16BCF01D861E861F86188A8E2F992786
S1133B5087FD9095909581959F4F04C05695479504
S1133B60379527958A95D2F729873A874B875C87BB
S1133B702AC0CA01B901002E04C09695879577958D
S1133B8067950A94D2F76D877E878F87988BDA01C1
S1133B90C90104C0880F991FAA1FBB1FEA95D2F759
S1133BA029813A814B815C8104C0569547953795AC
S1133BB027950A95D2F7822B932BA42BB52B8987B3
S1133BC09A87AB87BC8729853A854B855C856D854B
S1133BD07E858F85988960960FB6F894DEBF0FBEF8
S1133BE0CDBFCF91DF910F910895991B79E004C067
S1133BF0991F961708F0961B881F7A95C9F7809528
S1133C000895AA1BBB1B51E107C0AA1FBB1FA6171F
S1133C10B70710F0A61BB70B881F991F5A95A9F771
S1133C2080959095BC01CD010895A1E21A2EAA1B9E
S1133C30BB1BFD010DC0AA1FBB1FEE1FFF1FA21758
S1133C40B307E407F50720F0A21BB30BE40BF50B55
S1133C50661F771F881F991F1A9469F760957095DE
S1133C60809590959B01AC01BD01CF010895629FA1
S1133C70D001739FF001829FE00DF11D649FE00D60
S1133C80F11D929FF00D839FF00D749FF00D659FC1
S1133C90F00D9927729FB00DE11DF91F639FB00DC0
S1133CA0E11DF91FBD01CF01112408952F923F9208
S1133CB04F925F926F927F928F929F92AF92BF9238
S1133CC0CF92DF92EF92FF920F931F93CF93DF93E4
S1133CD0CDB7DEB7CA1BDB0B0FB6F894DEBF0FBE41
S1133CE0CDBF09942A88398848885F846E847D848E
S1133CF08C849B84AA84B984C884DF80EE80FD8090
S1133D000C811B81AA81B981CE0FD11D0FB6F89405
S1133D10DEBF0FBECDBFED010895DC0101C06D9380
S10F3D2041505040E0F70895F894FFCFA4
S1133D2C0100FFFFFFFF010022FFFFFFFF6D02A157
S1073D3C026D02010D
S9030000FC
