S01700006275696C642F697269732F6D61696E2E7372656343
S11300000C947B000C949A000C949A000C949A0023
S11300100C949A000C949A000C949A000C949A00F4
S11300200C949A000C949A000C949A000C949A00E4
S11300300C949A000C94E9170C949A000C942F18C1
S11300400C944B190C94FF180C9435190C9440190A
S11300500C9486190C949A000C949A000C949A00AF
S11300600C9457180C949A000C949A000C949A00CF
S11300700C949A000C949A000C949A000C949A0094
S11300800C949A000C949A000C949A000C949A0084
S11300900C949A000C949A000C949A000C949A0074
S11300A00C949A000C949A000C949A000C949A0064
S11300B00C949A000C949A000C949A000C949A0054
S11300C00C949A000C949A000C949A006F1092105D
S11300D0A810D1102C113E11B911AB13B513C913CB
S11300E019144514401570159815B115DA15FE1537
S11300F000020E060C0411241FBECFEFD1E2DEBFB6
S1130100CDBF12E0A0E0B2E0ECEFF6E300E00BBFFD
S113011002C007900D92AC31B107D9F716E0ACE1FB
S1130120B2E001C01D92AD32B107E1F70E943C1666
S11301300C947C1B0C940000109A0895119A089555
S1130140129A0895169A08952F980895289A089552
S1130150209A0895EFE6F0E080818F7D80830895F2
S11301605F926F927F928F929F92AF92BF92CF9243
S1130170DF92EF92FF920F931F935FB6F894A090D3
S1130180A302B090A402C090A502D090A60295014B
S1130190A60160E070E080E090E0FEE4AF2EE3E8CA
S11301A0BE2ECC24DD24EE24FF2400E010E00E94C7
S11301B0B11939014A0100E20E947B1A59016A010E
S11301C0A401930156954795379527952A0D3B1D14
S11301D04C1D5D1D57FF05C05F772F5F3F4F4F4F8D
S11301E05F4F2093A3023093A4024093A50250933F
S11301F0A6025FBEC9011F910F91FF90EF90DF909F
S1130200CF90BF90AF909F908F907F906F905F90B2
S11302100895FC01918180E0208130E0282B392B66
S1130220C901089506960E940901089501960E9445
S113023009019C0127743C7C81E098E8213439074A
S113024009F080E008950F931F93CF93DF938C01FF
S1130250EC012196CE010E9409018062F80181839C
S1130260998380E0DF91CF911F910F910895FC0154
S1130270668377830895FB0121E030E002C0220FFA
S1130280331F8A95E2F780A9822B80AB08951F93D0
S1130290CF93DF93EC01162F6093E40382E0BE0159
S11302A00E943B011AABDF91CF911F910895FC018D
S11302B0218130E0908180E0282B392BC9010895F9
S11302C02F9A08950DB407FEFDCF8EB50895982F8B
S11302D00DB407FEFDCF8EB59EBD089528980895F0
S11302E01F93DF93CF930F92CDB7DEB7182F698397
S11302F00E946E01106C1EBD89810E9467010E94DC
S113030062010E94A6000F90CF91DF911F91089582
S1130310009721F0019701960197E1F7089588234A
S113032019F08CB5806402C08CB58F7B8CBD0895A8
S1130330FB0121E030E002C0220F331F8A95E2F76F
S1130340209580A9822380AB0895DF93CF930F92E9
S1130350CDB7DEB789830E946E01898180688EBD26
S113036080E00E9467010E94620189830E94A600C6
S113037089810F90CF91DF9108958093050681E0E4
S1130380809344032091840030918500EFB7F89462
S113039080918400909185000396AC01421B530B1D
S11303A04617570718F4CB01820F931F009711F4D7
S11303B081E090E00197909389008093880082E027
S11303C086BB80916F00826080936F00EFBF0895B9
S11303D0CF93DF93EC0101960E94090185FF15C0BC
S11303E0CE010E941601882381F0CE010E941201E1
S11303F0AC018FB7F89420910202309103028FBFB1
S113040081E090E04217530711F080E090E0DF9123
S1130410CF910895EFE6F0E080818D7F8083089589
S113042001960E9409019C012770307081E02230FE
S1130430310509F080E008959C012627022E2295BB
S1130440207F2025032E322F22952F7002262695F9
S113045032272327220F220F220F2025C9010895B6
S11304606FB7F89420912404309125044091260418
S113047050912704809184009091850076B370FF99
S113048008C02F5F3F4F4F4F5F4F80918400909182
S113049085006FBFA90133272227A0E0B0E0282BF5
S11304A0392B4A2B5B2BB901CA0108959FB7F894E5
S11304B0809192028F5F809392029FBF08959FB7AD
S11304C0F89482B121E0822782B99FBF08959FB733
S11304D0F89482B122E0822782B99FBF0895909157
S11304E0B60093FDFCCF8093B30008958091150668
S11304F08F3F89F0282F30E0F901E258FD4F9081B9
S1130500909315069F3F11F49093270622583D4F70
S11305109FEFF901908308958091B0008093B0001B
S11305208091B60081FDFCCF0895882319F08CB525
S1130530806802C08CB58F778CBD089580912602A7
S1130540882311F40E9467028091260290E00196AC
S113055065E070E00E940C1B809326020895809150
S11305602802882339F49FB7F89482B124E08227C3
S113057082B99FBF1092280208959FB7F894E82F7C
S1130580F0E0E258FD4F20812F3F49F421E030E0B4
S113059040912706481729F020E030E002C021E00E
S11305A030E02115310589F4209115062F3F19F407
S11305B08093150606C0E0912706F0E0E258FD4F4F
S11305C080838093270680E001C085E09FBF089563
S11305D080913302813019F485E00E94BD020895B0
S11305E020913302222371F49093FE058093FD053C
S11305F081E0809333021092AF0385E00E94BD0234
S113060080E0089585E00895CF93DF93EC018FE3B4
S11306108A878091A8028F5F8093A8028B83809140
S11306204402909145020097A9F488A599A50097E2
S113063019F0CE010E942301CE010E94F00288230A
S113064051F4D0934502C093440210929C0210923C
S11306509B0201C085E0DF91CF9108958EE00E9456
S1130660BD0208958BE00E94BD0208958AE00E94B5
S1130670BD0208958CE00E94BD0208959FB7F894CE
S1130680809390029FBF85E00E94BD0208950F935E
S11306901F931FB7F89480911D02823059F5809101
S11306A00A02882339F5209108022F3FE9F08FEFE1
S11306B080930A02822F90E0FC01EB5BFC4F3081B7
S11306C0309308023F3F11F4309309028B5B9C4F37
S11306D03FEFFC0130832093460381E080931D02A9
S11306E089E00E94BD0204C020930A0210921D02F8
S11306F081E001C080E01FBF11E018270FB7F89414
S113070080911D02882311F40E948F010FBF812F55
S11307101F910F9108951F931FB7F89480911C02A5
S1130720823059F580910702882339F5209105021A
S11307302F3FE9F08FEF80930702822F90E0FC01B6
S1130740E756FD4F3081309305023F3F11F430935B
S1130750060287569D4F3FEFFC013083209396029B
S113076081E080931C0280E00E94BD0204C02093BB
S1130770070210921C0281E001C080E01FBF91E0DB
S113078089271F9108958FB7F8949091B20067B3A9
S11307902091790230917A0240917B0250917C023F
S11307A061FF0CC06091B3009091B2002F5F3F4F86
S11307B04F4F5F4F260F311D411D511D290F311D14
S11307C0411D511D8FBFB901CA010895DF92EF92F7
S11307D0FF920F931F93D82E7A018B010E94C303BB
S11307E04D2D50E09A01B3E0220F331FBA95E1F783
S11307F0240F351FF901E75DFB4F6083718382830A
S11308009383E482F58206831783F901EF5CFB4F3F
S113081080818360808383E00E94BD021F910F91D9
S1130820FF90EF90DF900895AB01BC0183E00E943C
S1130830E60308955091210640910406242F30E0E8
S1130840852F90E0451710F42C593F4F281B390B86
S1130850C9010895CF92DF92FF920F931F93DF9304
S1130860CF930F92CDB7DEB7F82E8B016A012D31ED
S113087008F077C0CA0129830E94160129818823C0
S113088029F481E4F601818388E88283235FF601F9
S113089020832FB7F89490910202809103022FBF16
S11308A0908781879FB7F894809104029FBF8483C7
S11308B01582F386C601B8010E9437018FB7F894F8
S11308C090911C02992371F492E090931C0210926F
S11308D007028FBFC6010E940403082F882309F46E
S11308E041C00CC08FBFD0929802C0929702FFB64D
S11308F0F89480911C02882379F403C00E948B032E
S113090031C081E080931C021092960280E00E9424
S1130910BD02FFBE00E026C0809199028F3F49F4DA
S113092081E090E020910602222329F080E090E00B
S113093002C081E090E0009789F4809105028F3F26
S113094019F41092050206C0E0910602F0E0E756A1
S1130950FD4F10821092060200E001C005E0FFBEC8
S113096001C006E0802F0F90CF91DF911F910F916E
S1130970FF90DF90CF9008951F93CF93DF938091E2
S11309801B0290E0019665E070E00E940C1B10E0F1
S113099025E030E0482F50E0FA01EE0FFF1FE95147
S11309A0FC4F608171816115710599F0E82FE6951E
S11309B0E695E695F0E0E85EF94F608170E0FA01B3
S11309C0E770F07002C075956795EA95E2F760FFED
S11309D009C0CA010196B9010E940C1B1F5F1530A2
S11309E0C9F61DC080931B02E0911B02E530D0F4D0
S11309F0F0E0EE0FFF1FE951FC4FC081D181CE0121
S1130A000E941201BC0128812D508B85AE010E94E9
S1130A102A04882339F081E10E94BD0203C01093A7
S1130A201B02E2CFDF91CF911F910895CF92DF9205
S1130A30EF92FF920F931F93DF93CF930F92CDB753
S1130A40DEB7F82E8B01242F853070F5C82EDD24F7
S1130A50CC0CDD1C87EE93E0C80ED91EF601408154
S1130A6051814115510511F571836083822F835F94
S1130A70FB01808380911B028530D0F0E384CB019D
S1130A8029830E941201BC01F0921B028E2DA80141
S1130A9029810E942A04882361F095E090931B0227
S1130AA0F6011182108205C081E003C085E001C017
S1130AB080E00F90CF91DF911F910F91FF90EF9005
S1130AC0DF90CF9008951F9380E00E948F011FB79D
S1130AD0F894229A2398219A8CB580618CBD80E089
S1130AE00E9495028DB581608DBD8CB5877F8CBDCC
S1130AF08CB58B7F8CBD8CB58E7F8CBD81E00E94C4
S1130B008F011FBF1F9108951F931FB7F894809101
S1130B101D02882311F40E9463051FBF1FB7F894B8
S1130B2080911D02882359F481E080931D02109264
S1130B30460389E00E94BD021FBF80E024C080916B
S1130B4045038F3F49F481E090E02091090222237C
S1130B5029F080E090E002C081E090E0009789F401
S1130B60809108028F3F19F41092080206C0E091A8
S1130B700902F0E0EB5BFC4F10821092090280E066
S1130B8001C085E01FBF1F9108958FB7F89490911D
S1130B900A02992331F490911D02923011F48FBF0F
S1130BA013C08FBF8FB7F89490911D02992371F4ED
S1130BB092E090931D0210920A028FBF0E94630577
S1130BC00E94A8000E94A60081E008958FBF0E94A1
S1130BD0840580E008952F923F925F926F927F92F6
S1130BE08F929F92AF92BF92CF92DF92EF92FF9239
S1130BF00F931F93CF93DF93EC01809134028823EA
S1130C0009F0FBC080911F06853009F0F6C00E94F0
S1130C10C505882309F4F1C080910606882309F0EC
S1130C20ECC088A982FF03C06AA96F7001C060E0AC
S1130C308091B003681731F06093B003606885E079
S1130C400E947001CE010E9416018823B1F086E053
S1130C500E94A50190E08F71907040919A022091BA
S1130C60A70230E0240F311D43E0359527954A95BE
S1130C70E1F7281739070CF4C0C082E069E00E944C
S1130C8070010E9430023B014C0188A984FF06C018
S1130C90888185508E01080F111D02C000E010E00C
S1130CA081E00E94A5018F71893021F087E0809353
S1130CB01F06A3C0FFB6F8940E9460012090840030
S1130CC030908500FFBE0E94A4000E946E0180E661
S1130CD08EBD5E010894A11CB11C5880852D0E9414
S1130CE067018EEF580EE52DE73018F087E0E82E07
S1130CF001C0E52C5E18FE2C6501F60181916F019F
S1130D000E946701FA94C9F7EA94FF240894E11C4D
S1130D10F11CEA0CFB1CC1018E559F4F86199709E3
S1130D205C01CC24B7FCC094DC2CA60CB71CC81CFA
S1130D30D91C01151105A1F0F80180819181A281CE
S1130D40B3818A199B09AC09BD0983839283A1836A
S1130D50B08306C0F70181917F010E9467015A9414
S1130D605520C1F70E9462010E94A60082E066E05D
S1130D700E9470010115110581F1F801838190E051
S1130D80A0E0B0E0208130E040E050E0522F442762
S1130D9033272227822B932BA42BB52B218130E0E0
S1130DA040E050E0A90133272227822B932BA42B68
S1130DB0B52B228130E040E050E0542F432F322FF6
S1130DC02227822B932BA42BB52B8A0D9B1DAC1DA4
S1130DD0BD1D80839183A283B38381E0BE010E9401
S1130DE03B01ACA6BDA6CEA6DFA686E080931F0677
S1130DF084E08093340280E001C085E0DF91CF91EC
S1130E001F910F91FF90EF90DF90CF90BF90AF9024
S1130E109F908F907F906F905F903F902F90089558
S1130E20BC0181E00E94BD0108950F931F93CF93ED
S1130E30DF938C012FB7F894C0919302D091940260
S1130E40CE018F5E9E4F90939402809393022FBFA6
S1130E5087E00E94BD02CE01B8010E94F81A9C01ED
S1130E602A5D3E4FC901DF91CF911F910F910895E3
S1130E702F923F924F925F926F927F928F929F92A6
S1130E80AF92BF92CF92DF92EF92FF920F931F9394
S1130E90DF93CF9300D000D0CDB7DEB729E0222E68
S1130EA095E0D92E88E0C82E00E2A02E10E8312E5D
S1130EB0B2EB4B2EB3E05B2E80910606882309F437
S1130EC0DFC00E94C505882309F4DAC08FB7F894FF
S1130ED060904203709043038FBF109206068FE028
S1130EE00E94A501B82E80FF0AC09091340293306D
S1130EF011F0973021F4D0921F06C0923402B2FE52
S1130F0061C090913402963011F4109234029091A1
S1130F103402992309F056C0843009F043C086E0B6
S1130F200E94A501082F0F7180919A02982F96951F
S1130F309695891B800F80939A02E0904102F0906D
S1130F40420282E0B7010E94980183E0B7010E9447
S1130F503B01D701D2960C930E9430027B018C0195
S1130F60E9EFFFEF6E0E7F1E661A770A882477FC7E
S1130F708094982C209141023091420281E0B90181
S1130F802C8339830E943B01E60CF71C081D191DB4
S1130F902C813981D9019C96ED92FD920D931C937D
S1130FA09F970EC0609141027091420283E00E94BB
S1130FB09801609141027091420281E00E9498017F
S1130FC0D0923402B3FE5CC0009134020430E1F5E7
S1130FD0D0921F06109234028091A202833019F439
S1130FE01092A2024DC00091AD031091AE03C8014E
S1130FF001960E94090185FF0EC0C8010E941601D6
S1131000882349F0C8010E94120121E030E0BFEFBB
S11310108F3F9B0711F420E030E0222369F0809198
S11310204403882349F482E061EE72E00E94BD012A
S113103082E08093A20224C01092A20210922006A1
S113104080E00E943E031CC00530D1F480911F064D
S1131050873039F482E066E00E94700100931F0635
S11310600DC086E00E94A5019091A702292F269524
S11310702695921B8F71980F9093A70220923402A9
S113108080913402882309F45EC2893009F0D5C105
S11310900E946E01AEBC0DB407FEFDCF8EB51EBC22
S11310A00DB407FEFDCF2EB5233008F498C0822F6F
S11310B090E08A3291050CF092C01EBCE09141028E
S11310C0F09142028F010F5F1F4F2083AEEF6A2E13
S11310D0620EE62DE73018F0F7E0BF2E01C0B62C03
S11310E01B830A839B2CEE24FF2480E00E9467016B
S11310F0682FAA81BB818D93BB83AA83C7010E94F9
S11311001C027C019A9489F78B2D8150882E992496
S11311100894811C911C800E911E00914102109133
S11311204202C8010E941002882319F18091A20290
S11311308230E1F4C8010196E091AD03F091AE0371
S1131140DC0112963C9112972381321749F40E94D4
S113115009018770907021E030E08230910511F030
S113116020E030E081E090E0222361F480E090E030
S113117009C09FB7F89481E020912804233008F037
S113118080E09FBF882359F16B180CC080E00E9457
S11311906701682FF40181934F01C7010E941C026B
S11311A07C016A94662091F780E00E946701682FB1
S11311B0C7010E941C028C0180E00E946701682F15
S11311C0C8010E941C027C0100914102109142025C
S11311D00E946201D801D1968C93D19703C0E1E0BB
S11311E0EE2EF12C0E94A600D0921F06109234021B
S11311F0E114F10409F09EC1609041027090420232
S1131200C3010E941002082F8091A2028230C1F40F
S11312100E940A02109244036091AD037091AE03E0
S1131220002321F080E00E943B0103C080E00E9483
S113123098011092A2021092200680E00E943E03C0
S1131240002309F0F5C0C3010E94E8018823A1F03E
S1131250D092B10382E08093B203F2011182D301F0
S113126013968C91828381EB93E00E94EB05882393
S113127019F483E08093A202009184001091850008
S1131280C3010E94E801882311F0045E1C4F1093EF
S11312909E0200939D028091840090918500F80144
S11312A0E81BF90BCF011E161F0664F420912006DB
S11312B0222329F40E9410073092200603C02068DC
S11312C02093200683010F5F1F4FC30108960E94DD
S11312D0090160917D02262F30E0F901EE0FFF1F16
S11312E0E95FF94F40815181E0906B044817590739
S11312F069F4F901EE5DF94F80818E1509F464C03B
S1131300E394E0926B04E08270E847C0A7E0B6E0A3
S1131310E2E2F6E020E030E0BB2470E0622F4D9181
S11313205D914817590791F420937D0240916B0415
S1131330F901EE5DF94F2081241709F445C0242FEB
S11313402F5F20936B04208370E80DC041912F5FC1
S11313503F4FFE2CF41A7F1510F4B62E7F2D622F0A
S113136025303105D9F66530C1F4B0927D022B2DBC
S113137030E0F901EE0FFF1FE95FF94F918380839D
S113138080916B048F5F80936B04F901EE5DF94FDC
S11313908083285D394FD9011C9280916B04982F6A
S11313A09F779F3779F47F3768F0E2E2F6E0282FE1
S11313B0207890819F67981320833196B6E0E732B6
S11313C0FB07B9F760917D02F801828170E0FB01AF
S11313D0E85DF94F908190FF07C0FB01E150FA4F9F
S11313E09081891719F424C09160908361507A4FD9
S11313F0DB018C930FB7F894809128048330B8F400
S1131400E0914302E80FE33008F0E350F0E0EE0F20
S1131410FF1FE95CFD4FB080E180718260828F5FC5
S11314208093280486E00E94BD026B2C7E2C0FBFA3
S113143070924202609241027DC0982F9150933085
S113144008F062C09150923098F590911F06913047
S113145069F420914403222349F40E94A40083E008
S11314606BE273E00E94BD0182E038C0833001F575
S11314709330F1F40E94C5058823D1F08FE00E94D7
S1131480A50180918100806480938100A6BA809137
S11314906F00806280936F0060919502606688E0BF
S11314A00E94700182E066E00E94700184E016C030
S11314B0809134028150823098F480911F068530E7
S11314C079F40E94C505882359F082E063E00E9404
S11314D070010E94AA001092060683E080931F0602
S11314E000913402013049F480911F06833011F5D4
S11314F00E94600100931F061BC00230D9F4809142
S11315001F068330B9F414C08730A1F40E94C505C6
S1131510882381F060919502606688E00E947001E2
S113152080911F06853021F484E080931F0602C059
S1131530C092340280913402883029F4109234022B
S113154084E00E94BD02809134028823B1F480912A
S11315501F06853091F480910606882371F48091EA
S1131560A202882351F480912006882331F48091CB
S11315704403882311F40E94E802809134028823F2
S113158011F40E94470380914403823009F07FC024
S11315901092440380910506823009F45EC08330C2
S11315A009F463C0813009F072C000919D0210916A
S11315B09E0280918400909185002091200620381D
S11315C029F4109220060E94E80261C0081B190B3E
S11315D027FF03C010161106ECF0E090A002F09073
S11315E0A1028091A2028823A9F4C7010E94EB05FD
S11315F0282F882381F480E0B7010E94980181E0BC
S11316008093A202F092AE03E092AD0383E0809354
S113161020063DC025E080912006982F9F779130C9
S113162059F4807882608093200680E198E00E94DB
S113163015070E9410072BC087FF0BC01016110658
S113164044F430922006C8012C830E9410072C8198
S113165002C010922006822F05C01092A20210929E
S1131660200680E00E943E0312C090911F06923033
S113167019F480931F0609C080913402863029F43E
S11316801092340281E00E94A5010E946C0B8FB776
S1131690F894909192029130D1F4109292028FBFFB
S11316A00F900F900F900F90CF91DF911F910F919A
S11316B0FF90EF90DF90CF90BF90AF909F908F906E
S11316C07F906F905F904F903F902F90089591E09E
S11316D0909392028FBFF0CB8FB7F89490919202BF
S11316E0992329F09068909392028FBF089591E016
S11316F0909392028FBF0E94380708959FB7F89481
S113170080919202815080939202803811F09FBFA1
S1131710089581E0809392029FBF0E943807089544
S1131720DF92EF92FF920F931F93D82E7A018B01D1
S11317300E94C3034D2D50E09A01E3E0220F331FB2
S1131740EA95E1F7240F351FF901E75DFB4F60834C
S1131750718382839383E482F58206831783F9017C
S1131760EF5CFB4F80818E7F8260808383E00E94E8
S1131770BD021F910F91FF90EF90DF90089590E0CC
S1131780880F991F90932C0280932B020E94A00033
S11317900E949E000E949C0084E044EF51E060E0BF
S11317A070E00E94900B0895809143048D7F809394
S11317B0430480914C048D7F80934C04EAE3F4E06D
S11317C080818D7F8083809155048D7F8093550423
S11317D0809167048D7F8093670410922A0210928F
S11317E0290210922C0210922B02109230021092B5
S11317F021061092040610926C0481E08093680420
S11318000E94A0000E949E000E949C0008951F93C5
S11318100E94D40B84E080930B0210921E0210925B
S11318201F0210922102109220028FE180930E0277
S113183080930F0210922402109225021092260225
S1131840109227021092280284E690E090931102ED
S11318508093100210922A021092290281E090E0F3
S1131860909313028093120211E0109314021093C8
S1131870150210922C0210922B020E94A0000E94CA
S11318809E000E949C001092210610920406109261
S11318906C04109368048091000290910102883CCA
S11318A0910520F082E08093160202C01093160284
S11318B021E02093170210922D0280E590E090938E
S11318C02F0280932E028091120290911302909322
S11318D00D0280930C0220931802109230028FE0C4
S11318E08093190220931A020E94AF0228E088E133
S11318F090E00FB6F894A895809360000FBE2093F3
S113190060000000FECF80912702882311F40E941A
S11319105F028091270290E0019664E170E00E94EA
S11319200C1B809327020895FC0180A983FF03C048
S113193022A930E002C02FEF3FEFC9010895CF92F2
S1131940DF92EF92FF920F931F93CF93DF93EC01FB
S1131950F62ED72E2C30A9F5483009F0B7C0062F43
S1131960172F10921F02809143048D7F80934304AC
S11319700E94830CC8010E945701809354039093E2
S11319805303F801828180930E02C80106960E94D7
S113199057017C019093110280931002C8010496B0
S11319A00E94570190932A028093290210922302E5
S11319B010922202A70160E070E082E00E94900B86
S11319C087C02D3009F082C0443009F07FC0809177
S11319D01F02882309F07CC00E94830CEFB6F894A0
S11319E080916804882309F06BC0C09004060C2D14
S11319F010E0CE0108960E940901000F111F000F8C
S1131A00111FF801E359FB4F80838F2D9D2D0E94F8
S1131A105701F801E259FB4F8083CE010E94940CD8
S1131A20F801E159FB4F818390838C2D8F5F809364
S1131A300406843610F010920406909104068091F6
S1131A402106981719F481E08093680410921E020D
S1131A5081E048EE53E060E070E00E94E60380918C
S1131A606C04882329F40E94320381E080936C047F
S1131A700E941A0420911702233021F520912E028E
S1131A8030912F0282179307E8F081E080932D02B2
S1131A9010920104109203041092020481E18093D5
S1131AA0FD038FEF9FEF90930D0280930C020E9431
S1131AB02E036FE070E080E090E00E94140402C006
S1131AC00E94AF02EFBE0E94320302C00E94AF0226
S1131AD0CE01DF91CF911F910F91FF90EF90DF9096
S1131AE0CF9008956F927F928F929F92AF92BF9200
S1131AF0CF92DF92EF92FF920F931F93CF93DF93D6
S1131B004B015C01C9E2D4E060E070E0762EFB0199
S1131B1013E0EE0FFF1F1A95E1F7E60FF71FB9E286
S1131B20CB2EB4E0DB2ECE0EDF1ED60118966C90C1
S1131B30189761FEA2C0E880F9800A811B818C811C
S1131B409D81AE81BF81A50194012E193F09400BEF
S1131B50510B281739074A075B0708F48EC060FE4B
S1131B6006C0EF5CFB4F80818D7F808309C08E0DA2
S1131B709F1DA01FB11FF60180839183A283B383AD
S1131B80F72DF23009F43FC0F33030F4772079F0C8
S1131B90F13009F079C016C0872D843009F450C0A3
S1131BA0843008F44AC0853009F06EC063C0809167
S1131BB0440290914502009709F466C081E00E94B6
S1131BC0BD0262C070921E02809117028330A9F593
S1131BD080912D02882399F470922D0210920104B1
S1131BE0109203041092020481E18093FD038FEFAD
S1131BF09FEF90930D0280930C020E942E0381E0CC
S1131C0080932D021AC08091290290912A02009794
S1131C1039F020912202309123028217930718F0A1
S1131C200E94360331C0809143048D7F8093430426
S1131C3010922302109222021DC00E94320324C07B
S1131C4080912B0290912C02009731F480915504DD
S1131C508D7F8093550418C00E9467020E945F0222
S1131C6080912B0290912C02019790932C028093E7
S1131C702B020AC00E94AF0207C06F5F7F4F2996F4
S1131C806730710509F042CF83E00E94BD02DF9105
S1131C90CF911F910F91FF90EF90DF90CF90BF9065
S1131CA0AF909F908F907F906F900895CF92DF9226
S1131CB0EF92FF920F931F931FB7F8942091B300F4
S1131CC09091B20087B3291711F081FF02C01FBFA2
S1131CD070C080919F028823D9F10E94C303209190
S1131CE03D0230913E0240913F0250914002C0902B
S1131CF01906D0901A06E0901B06F0901C06621B91
S1131D00730B840B950B6C157D058E059F0528F0D0
S1131D1010929F0296EE01E01FC0D701C601820F08
S1131D20931FA41FB51F2091790230917A0240912C
S1131D307B0250917C02821B930BA40BB50B873E54
S1131D409105A105B10520F4982F823020F402C03A
S1131D5096EE01C092E000E0E92FE1508091B600D8
S1131D6083FDFCCF8091B200E81709F4E92F20919C
S1131D70790230917A0240917B0250917C02CA012F
S1131D80B9016F5F7F4F8F4F9F4F6E0F711D811D84
S1131D90911D621773078407950710F4E22FE095ED
S1131DA08E2F0E946F021FBF002319F082E00E9451
S1131DB0BD021F910F91FF90EF90DF90CF90089597
S1131DC00F932093110630931206409313065093F9
S1131DD0140600939102EFB7F894F1E0F0939F0298
S1131DE060933D0270933E0280933F0290934002C1
S1131DF02093190630931A0640931B0650931C0631
S1131E00EFBF0E94560E0F9108951F93182F81E083
S1131E100E948F011EBD0DB407FEFDCF8EB51F912C
S1131E2008950F931F93823041F1833030F4882357
S1131E3059F0813009F0CAC00FC0833009F4A6C03C
S1131E40843009F0C3C0C0C010921F02662309F099
S1131E50B8C00E949E02BAC010921F02662309F005
S1131E60B0C00E949E0280912202909123020196AA
S1131E709093230280932202A9C010921F0266232A
S1131E8069F50E949E0280913A048D7F80933A0402
S1131E901FB7F894F0910406E0910B02809121069B
S1131EA040E024E630E006C090E00196B9010E94CB
S1131EB00C1B4F5F8F1711F04E17B0F38093210660
S1131EC01092680480911502882331F00E94B000BA
S1131ED083708F5F80930B021FBF20C00E94AF02EC
S1131EE0109119020E94B000AC01812F65E00E949C
S1131EF0EC1A212F30E0280F311D8091190263E084
S1131F000E94EC1A682FCA0170E00E94F81A281B7C
S1131F10390BB90180E090E00E941404109117027B
S1131F20133009F053C000912D02013009F04EC066
S1131F300E941A04009759F410922D02109221065F
S1131F401092040610926C04009368043FC0009140
S1131F5019020E94B000AC01802F65E00E94EC1AC7
S1131F60202F30E0280F311D80911902612F0E942B
S1131F70EC1A682FCA0170E00E94F81A281B390B6A
S1131F80B90180E090E00E94140420C010921F0266
S1131F906623B9F40E949E0280913A048D7F809357
S1131FA03A042FB7F8948091210690E0019664E6F4
S1131FB070E00E940C1B80932106109268042FBFCE
S1131FC005C00E94AF0202C010921F021F910F9120
S1131FD00895DF93CF9300D0CDB7DEB79C018091F5
S1131FE01B028530A8F4E82FF0E0EE0FFF1FE95143
S1131FF0FC4F408151814217530751F411821082E2
S11320006A8389830E94BC0489816A810E94110FBA
S11320100F900F90CF91DF9108950F931F93DF934B
S1132020CF930F92CDB7DEB7682F00914402109181
S113203045021092450210924402809131048D7F32
S11320408093310420919B0230919C02F80131A7C6
S113205020A782858F3339F469830E948B03C801DA
S113206069810E94E90F0F90CF91DF911F910F9129
S11320700895CF93DF93BC01C1EFD3E0CE010E945A
S113208037018EE08093FC0384E0BE0141E10E94AD
S11320901605DF91CF9108952F923F924F925F9250
S11320A06F927F929F92AF92BF92CF92DF92EF9204
S11320B0FF920F931F93DF93CF9300D00F92CDB76E
S11320C0DEB7E82FF0E0E231F10508F0B1C5EA59D6
S11320D0FF4FEE0FFF1F0590F491E02D09948FB789
S11320E0F894909196029093070292E090931C02C8
S11320F08FBF80910702882309F09AC580919702C7
S1132100909198020E940403882309F491C589835D
S11321100E948B03809197029091980269810E949A
S1132120E90F86C58091440290914502FC0120A5E7
S113213031A52115310511F00E942301809144023B
S1132140909145020E94F002882309F471C50CC1E4
S113215080919102882311F5EFB7F89460911906E4
S113216070911A0680911B0690911C0620913D02E5
S113217030913E0240913F0250914002620F731F22
S1132180841F951FEFBF20911106309112064091D4
S113219013065091140600E00E94E00E0E94C3034F
S11321A050C00E94C3039B01AC018FB7F8941092F6
S11321B09F028FBFE9E2F4E060E070E099249FEFB2
S11321C0E92E9FEFF92E9FEF092F9FE7192FDB01CF
S11321D083E0AA0FBB1F8A95E1F7A60FB71FA75D7F
S11321E0BB4F18968C91189781FF1BC080819181F9
S11321F0A281B38159016A01A81AB90ACA0ADB0A81
S113220084819581A681B7818A199B09AC09BD098E
S11322108E159F05A007B10724F47C018D01992434
S113222093946F5F7F4F39966730710581F69920DB
S113223009F4FEC41E141F04100611062CF0CA0172
S1132240B9010E94720DF4C4CA01B901A801970131
S113225001E00E94E00EECC480913302109233023C
S1132260843019F410921F0238C4853009F4E0C494
S1132270863009F4DDC480933302DAC49FB7F8943E
S1132280809190029FBF90913302923011F4882381
S113229039F09091AF039F5F9093AF03963020F095
S11322A093E0909333022EC00E9456028091FD0564
S11322B09091FE05209120062223B1F4209144033D
S11322C0222391F49093A1028093A00281E0809351
S11322D0200686EB93E20E9415070E94100782E015
S11322E08093330280E00AC08091AF03853011F4FB
S11322F083E001C081E08093330285E089830E94FA
S11323007E0B898190913302933009F091C410922D
S11323103302E091FD05F091FE0520919B0230917E
S11323209C022F5F3F4F30939C0220939B0290A905
S113233090FF02C080E01AC0E0914402F09145028F
S1132340DF01989640A551A52417350778F4129615
S11323504D915C9113974115510531F060E070E0A7
S113236080E00E94E60364C481E021C40E940D1051
S11323705FC42DEFC22E23E0D22E95E0692E712C7E
S11323806C0C7D1C86E0982E07E0402E512C4C0CE2
S11323905D1C12E5A12E12E0B12EB2E02B2E312CE1
S11323A02A0C3B1C8FB7F89490912804992309F4C4
S11323B0EEC1E0914302F0E0EE0FFF1FE95CFD4F38
S11323C0208131813B832A838FBFF90182858F333A
S11323D009F0A2C15385E0808A819B8159830E94C0
S11323E012014FB7F89420910202309103024FBFBB
S11323F059818217930749F021E030E0FFEF8F3FC6
S11324009F0729F020E030E002C021E030E02115F0
S1132410310509F484C10A811B81045F1F4F4E2DCD
S11324204D505C3009F447C05D3020F45B3009F056
S113243076C107C05D3009F443C05E3009F06FC156
S113244059C0453009F065C180911F02882309F005
S113245066C10E94830CEDE0EE2EF12C2A813B81B3
S1132460E20EF31EC7010E9457019093210280934C
S113247020028091000280935202F8018081F501CC
S11324808183C7010E945701F10181839093540213
S11324908A819B810E94940C8093590290935802E4
S11324A0F801838180930E028481809325028FE05A
S11324B00E94BD0234C18A819B81B8012CE015C001
S11324C080911602843009F42AC1813009F027C1B1
S11324D080911702833029F480912D02813009F410
S11324E01EC18A819B81B8012DE00E949F0C9B83B1
S11324F08A8315C1413109F009C1F8018081F601CF
S113250084838A819B810E960E945701F301818303
S1132510909302049092FD03809112029091130211
S113252090930D0280930C02F80180818C3009F4A1
S113253065C08D30B0F48430E9F1853040F48230E8
S113254049F1833050F5813009F0DCC029C08A306C
S113255009F446C08B3008F04AC0883009F0D2C074
S113256036C0803109F475C0813138F48E3009F4F5
S113257062C08F3008F066C049C0823109F48FC050
S1132580823108F46EC0833109F490C0843109F0BB
S1132590B9C093C00E943A0316C00E94070C02C03F
S11325A00E94D40B9092FD0382E00E94BF0B0E9414
S11325B02E03B5C08A819B8143960E945701809364
S11325C00F020E942E0382E00E94BF0BA8C0C80124
S11325D007960E9457019093130280931202F1CF41
S11325E080911402F201818310920404EACFC8019D
S11325F007960E94570180931402E3CF8A819B813E
S113260043960E94570180931502DBCF80911702F5
S1132610813029F4C80107960E94570110C0833005
S113262009F07DC0C80107960E94570190932F02BC
S113263080932E02C6CF82E08093170281E08093BC
S11326400B02BFCFC80107960E9457018093160260
S1132650B8CF8A819B8143960E94570180931702C9
S1132660B0CF80911602843009F459C0823019F435
S11326700E94D40B49C0813009F051C090911702D7
S1132680933009F04CC090912D02992309F047C072
S113269080932D020E94BF0B0E94320340C0C801E8
S11326A007960E945701809318028BCFC8010796A2
S11326B00E9457018093190284CFC80107960E9493
S11326C0570180931A02C80109960E94570181306C
S11326D0910529F583E00E94BF0BC8010B960E9467
S11326E05701009741F48091670481FF18C08D7FE2
S11326F08093670414C0AC0160E070E086E00E943F
S1132700900B0DC00E94AF0281E05ECF81E00E9479
S1132710BF0B0E94AF0203C08FB7F8948FBF9FB75F
S1132720F89480914302E82FF0E0EE0FFF1FE95C7C
S1132730FD4F2A813B81318320838F5F8093430245
S1132740833010F0109243028091280481508093CA
S113275028049FBF27CE0E94B0002FB7F89490930F
S11327609402809393022FBF63C28FB7F8941092A0
S11327706A041092690410921E0610921D061092AB
S11327803602109235021092E6031092E5038FBFD1
S11327904FC28FB7F8949091460390930A0292E047
S11327A090931D028FBF80910A02882309F040C2D2
S11327B00E94A8000E94A60080911F068823B1F5FC
S11327C08EEF91E00E94880116980E94A40086E092
S11327D090E00E9488010E94A20083E060E00E94D1
S11327E0700182E068E00E9470018EEF91E00E9427
S11327F088018EE06DE40E94700189E067EC0E941C
S1132800700185E060E80E9470011092B0038BE0D3
S11328108093950288E06BE60E9470010E9460013B
S113282081E080931F060E94470302C20E946C0B42
S1132830FFC180911F02882319F587E493E060911A
S11328400E020E944701909122028091230203E527
S113285013E0F801918380935303C8010C976FEF41
S11328607FEF0E9437018DE08093520381E0B8012D
S11328706C50704044E00E941605882309F490C10E
S11328800E94AF020E943603D3C180911F028823A5
S113289009F0D5C080911602843009F4C9C1809131
S11328A01402882309F4C4C110916804112309F0A7
S11328B0B7C180911E02882309F0B2C10E941A0494
S11328C020911702223021F4009709F0A9C1B0C168
S11328D0213021F420910B0230E00CC0233009F0A8
S11328E0A7C120912D02222309F09AC120912E0222
S11328F030912F028217930708F092C199C11123D6
S113290019F410926C0494C11092300230911702A1
S11329102091200290912102323081F520935302BC
S11329209093520204E512E080916D04F8018183D2
S11329301092540280916E048383109256028FE6A3
S113294094E00E945701F801858390935802C801CE
S11329500E9760910F020E944701609112027091DC
S11329601302C8010E970E94370181E1809351023E
S113297083E0B8016E50704048E050C02093530289
S113298090935202CC2464E6662E712C2AC00C2D3E
S113299010E0E82EFF24000F111FF801EB5AFD4F41
S11329A0C701880F991F880F991FDC01A359BB4FDA
S11329B02C9121831082F801E35AFD4F11962C913A
S11329C02183108281599B4F0E945701F801EB59D2
S11329D0FD4F81839083C394C7010196B3010E9484
S11329E00C1B8A1521F090910B02C91680F2C0923B
S11329F0540286E492E060910F020E9447016091C4
S1132A0012027091130286E492E00E94370180E181
S1132A108093510282E066E472E04BE10E94160565
S1132A20882369F481E080931F02809120029091B1
S1132A30210201969093210280932002F9C00E9402
S1132A40AF02009119020E94B000AC01802F65E032
S1132A500E94EC1A202F30E0280F311D80911902BA
S1132A6063E00E94EC1A682FCA0170E00E94F81A11
S1132A70281B390BB90180E090E00E941404D8C0EF
S1132A8080911F02882339F59091200280912102C0
S1132A90EFEFF3E091838093FF0382E080930104DE
S1132AA096E09093FD03909116029683109204048D
S1132AB0808710920604909100028091010292870F
S1132AC08093080480911202909113020E9439109D
S1132AD0882309F465C00E94AF020E943A03A8C08B
S1132AE080911F02882301F5EFEFF3E011E01183D9
S1132AF01092FF0390913102809132029683809369
S1132B00040485E18093FD0380911A02808710926A
S1132B10060480910C0290910D020E9439108823C2
S1132B2019F410931F0284C00E94AF028DE03FC0CD
S1132B3080911F02882381F49091200280912102C8
S1132B40909300048093FF0380910C0290910D02F6
S1132B500E943910882321F10E94AF020E942E03A3
S1132B6067C080911F028823F9F48091000280934A
S1132B70520286E492E060910E020E94470186E4CC
S1132B8092E06FEF7FEF0E9437018AE08093510259
S1132B9080E066E472E048E00E941605882321F490
S1132BA081E080931F0244C00E94AF028FE00E9424
S1132BB0BD023EC0809118068823D1F137EEE32E82
S1132BC033E0F32E10E001E090911806802F892362
S1132BD061F0F70111821082802F80958923809300
S1132BE01806812F63E00E94110F1F5F22E030E07E
S1132BF0E20EF31E1830E1F0000FE6CF80911B02C5
S1132C00E82FF0E0EE0FFF1FE951FC4F1182108214
S1132C1089830E94BC04898161E00E94110F08C06D
S1132C20A090040680912106A81609F06DCE67CE07
S1132C300F900F900F90CF91DF911F910F91FF9004
S1132C40EF90DF90CF90BF90AF909F907F906F9068
S1132C505F904F903F902F9008950E9476028F3F8F
S1132C6021F00E944C1081E0089580E008958FB710
S1132C70F89408958FBF08951F931FB7F8948EE7B3
S1132C8092E06FEF70E042E150E00E94751B8FEF1D
S1132C90809315068093270656985E9854985C98FE
S1132CA00E94AA000E94A8000E94A600279A0E94DF
S1132CB0A4000E9A0E94A2008AE793E09093420235
S1132CC0809341021092A7028AE580939A0281E0E0
S1132CD08093810080E28093B60083E08093B1000A
S1132CE080918400909185004AE701C0C901209138
S1132CF08400309185002817390708F44150442393
S1132D00A9F78091B2009091B2009817E1F3209155
S1132D108400309185008091B2009091B2009817A0
S1132D20E1F380918400909185004096821B930B7F
S1132D3055E0969587955A95E1F7909317068093F9
S1132D4016061092B1008091B100809381008091A9
S1132D5081008093B6001092B20010928500109208
S1132D6084008FEF87BB87B386BB8091B6008571E3
S1132D70E1F70A9A099A089A0E94A0000E949E000C
S1132D800E949C0018B88FEF87B90C981498109281
S1132D9085001092840080916F00816080936F00A1
S1132DA080918100887F82608093810081E085BF6B
S1132DB00E942D168823E1F78FEF809345030E942C
S1132DC0840580910002909101020196A0E0B0E098
S1132DD08093A3029093A402A093A502B093A602A9
S1132DE089EA92E09093380280933702C3969093D5
S1132DF03A02809339028FE093E090933C028093EF
S1132E003B028091B60080628093B6008091B60048
S1132E1081FDFCCF82E08093B0008091B60080FDFC
S1132E20FCCF83E08093B10086EE0E946F02809114
S1132E3070008260809370000E94560E8FEF9FEFA7
S1132E40909308068093070690930A0680930906D8
S1132E5090930C0680930B0690930E0680930D06B8
S1132E609093100680930F06809100028295807FD4
S1132E708093A8028FEF809399020E942D168823D5
S1132E80E1F71FBF789481E080931F0280E090E017
S1132E909C01220F331F220F331FF901E359FB4F0B
S1132EA01082F901E259FB4F1082F901E159FB4FFD
S1132EB01182108201968436910551F710922106F1
S1132EC01092040610926C0481E0809368040E94BE
S1132ED05602809133028823B9F480913402882306
S1132EE099F480911F06813029F48091440388234A
S1132EF019F00AC0853041F083E0809334020E94C7
S1132F006C0B84E0809333020E947E0B0E94070CBA
S1132F1082E00E94BF0B1FB7F89452C080916E00EC
S1132F208670E9F480916F008E72C9F4809171000B
S1132F308E72A9F40CB407FC12C08091C100807E8B
S1132F4071F48091C900807E51F48091BC0082FDAF
S1132F5006C080917A0087FF04C021E003C020E00E
S1132F6001C025E08091700090E08370907000971C
S1132F7081F08091B6008A71E1F78091B30090915D
S1132F80B200891B8C3038F08091B200853F28F064
S1132F9002C0E5E003C0E2E001C0E3E083B72E171E
S1132FA008F4E22FF0E0E051FF4FE491807F81606C
S1132FB08E2B83BF78948895F89483B78E7F83BFD4
S1132FC00E9476028F3F09F4A9CF1FBF0E944C10C4
S1132FD0A2CF1F920F920FB60F920BB60F9211242D
S1132FE02F933F934F935F936F937F938F939F930D
S1132FF0AF93BF93EF93FF930E948C022091B30091
S113300030E02F5F3F4F40E050E080917902909193
S11330107A02A0917B02B0917C02820F931FA41FBD
S1133020B51F8093790290937A02A0937B02B093A8
S11330307C0278940E94560EFF91EF91BF91AF915C
S11330409F918F917F916F915F914F913F912F91BC
S11330500F900BBE0F900FBE0F901F9018951F92EC
S11330600F920FB60F920BB60F9211242F933F932A
S11330704F935F936F937F938F939F93AF93BF937C
S1133080EF93FF930E948C02FF91EF91BF91AF9158
S11330909F918F917F916F915F914F913F912F916C
S11330A00F900BBE0F900FBE0F901F9018951F929C
S11330B00F920FB60F920BB60F921124CF92DF929C
S11330C0EF92FF920F931F932F933F934F935F932E
S11330D06F937F938F939F93AF93BF93CF93DF931C
S11330E0EF93FF932EB58091690490916A04009741
S11330F039F0E091E503F091E603E80FF91F20832E
S11331008091E5039091E60301969093E603809302
S1133110E50380E00E949502C091E503D091E603A7
S11331202091350230913602C217D307E0F50091A1
S11331301D0610911E06E0906904F0906A04CE0109
S11331400A9628173907B0F4C90114C001151105EE
S113315029F0F801EC0FFD1F808101C080E00E947E
S1133160050FE114F10421F0F701EC0FFD1F80833A
S1133170219604C06C010894C108D108CC15DD0562
S113318028F381E00E9495020115110531F0F80140
S1133190EC0FFD1F80818EBD01C01EBCD093E603E1
S11331A0C093E50311C010926A041092690410924E
S11331B01E0610921D0610923602109235021092CD
S11331C0E6031092E5038EB5FF91EF91DF91CF9165
S11331D0BF91AF919F918F917F916F915F914F912B
S11331E03F912F911F910F91FF90EF90DF90CF901F
S11331F00F900BBE0F900FBE0F901F9018957894F0
S11332001F920F920FB60F920BB60F9211242F93A9
S11332103F934F935F936F937F938F939F93AF935A
S1133220BF93EF93FF930E940A0278948FB7F894A8
S113323090914403913019F492E0909344038FBF2A
S11332400E946C0BFF91EF91BF91AF919F918F9171
S11332507F916F915F914F913F912F910F900BBE92
S11332600F900FBE0F901F90189578941F920F9295
S11332700FB60F9211240F900FBE0F901F90189548
S113328078941F920F920FB60F9211240F900FBED5
S11332900F901F90189578941F920F920FB60F926B
S11332A00BB60F9211242F933F934F935F936F9319
S11332B07F938F939F93AF93BF93EF93FF938091EB
S11332C084009091850080918600909187002FB7AB
S11332D0F894909343038093420381E0809306061D
S11332E02FBF0E946C0BFF91EF91BF91AF919F9103
S11332F08F917F916F915F914F913F912F910F909B
S11333000BBE0F900FBE0F901F90189578941F92CC
S11333100F920FB60F9211242F938F939F93AF9315
S1133320BF932FB7F8948091240490912504A09121
S11333302604B09127040196A11DB11D8093240495
S113334090932504A0932604B09327042FBFBF9124
S1133350AF919F918F912F910F900FBE0F901F905F
S11333601895ACE2B0E0E7EBF9E10C943E1B29833D
S11333703A834B835C836D837E838F839887A9868E
S1133380BA86CB86DC86ED86FE860F87188B69802D
S11333907A808B809C8069A27AA28BA29CA28401F1
S11333A073018FEF9FEFA0E0B0E0E822F9220A2337
S11333B01B2314014424552469847A848B849C84BB
S11333C06DA27EA28FA298A664015301A822B922FD
S11333D0CA22DB22340188249924C601B501A8013C
S11333E097010E941F1B69A77AA78BA79CA7C401FA
S11333F0B3010E941F1B7B018C01C601B501A20110
S113340091010E941F1B5B016C01C401B3010E9466
S11334101F1B9B01AC01EA0CFB1C0C1D1D1D69A4A8
S11334207AA48BA49CA4C401AA27BB27E80EF91E86
S11334300A1F1B1FEA14FB040C051D0520F4205071
S113344030404F4F5F4FC801AA27BB27820F931FFD
S1133450A41FB51F8D8F9E8FAF8FB8A38701FF2444
S1133460EE2429A53AA54BA55CA540705070E20E48
S1133470F31E041F151FE98EFA8E0B8F1C8FDE2C92
S1133480AA8CCB8C6C8C8D8B8E8D8E8B8F8D8F8B31
S113349088A1888F2D853E854F85588969A17AA199
S11334A08BA19CA10E941F1B7B018C012D813E815D
S11334B04F8158856DA17EA18FA198A50E941F1BE5
S11334C0E60EF71E081F191F6D897E898F89988D56
S11334D06E0D7F1D801F911F6D8B7E8B8F8B988F40
S11334E07E892D2D3A2D4C2D562D8F89988DAC9695
S11334F0E2E10C945A1B0F93DF93CF93CDB7DEB761
S113350060970FB6F894DEBF0FBECDBF002309F459
S113351059C029833A834B835C836D837E838F8375
S11335209887E0E2E01B2D813E814F8158851E166D
S1133530BCF01D861E861F86188A8E2F992787FD4C
S11335409095909581959F4F04C0569547953795D2
S113355027958A95D2F729873A874B875C872AC0B3
S1133560CA01B901002E04C0969587957795679591
S11335700A94D2F76D877E878F87988BDA01C90109
S113358004C0880F991FAA1FBB1FEA95D2F729818F
S11335903A814B815C8104C05695479537952795B0
S11335A00A95D2F7822B932BA42BB52B89879A8764
S11335B0AB87BC8729853A854B855C856D857E857F
S11335C08F85988960960FB6F894DEBF0FBECDBF85
S11335D0CF91DF910F910895991B79E004C0991F51
S11335E0961708F0961B881F7A95C9F78095089559
S11335F0AA1BBB1B51E107C0AA1FBB1FA617B70715
S113360010F0A61BB70B881F991F5A95A9F7809530
S11336109095BC01CD01089597FB092E07260AD089
S113362077FD04D0E5DF06D000201AF4709561958B
S11336307F4F0895F6F7909581959F4F0895629F67
S1133640D001739FF001829FE00DF11D649FE00D96
S1133650F11D929FF00D839FF00D749FF00D659FF7
S1133660F00D9927729FB00DE11DF91F639FB00DF6
S1133670E11DF91FBD01CF01112408952F923F923E
S11336804F925F926F927F928F929F92AF92BF926E
S1133690CF92DF92EF92FF920F931F93CF93DF931A
S11336A0CDB7DEB7CA1BDB0B0FB6F894DEBF0FBE77
S11336B0CDBF09942A88398848885F846E847D84C4
S11336C08C849B84AA84B984C884DF80EE80FD80C6
S11336D00C811B81AA81B981CE0FD11D0FB6F8943C
S11336E0DEBF0FBECDBFED010895DC0101C06D93B7
S10F36F041505040E0F70895F894FFCFDB
S11336FC0100010022FFFFFFFFFFFF0401001F1F59
S10F370C6400010001010101010F01052E
S9030000FC
